S01900002E2F44656275672F5375706572506564726F2E7331395F
S315200000000248854600F017FFFEE7C04600C00120E3
S3152000001080B500AF124B134A1A60134B134A1A606D
S31520000020114B9B889BB2104AFF210B409BB29380B9
S315200000300D4B9B889BB20C49F022120113439BB2B5
S315200000408B80094BDA68084B1204120CDA60064BD7
S31520000050DA68054B06490A43DA60C046BD4680BDCC
S315200000600010024055555555000C02405555005577
S315200000700000AAFF80B584B000AF0200FB1D1A70F5
S315200000800C4A0F203B18127D1A703B183918FA1D9E
S31520000090097812780A431A703B183A181278042104
S315200000A08A431A70034A3B181B781375C046BD460F
S315200000B004B080BD0010024080B584B000AF0200BD
S315200000C0FB1D1A700F4A0F217B18127D1A70FB1D1B
S315200000D01B785BB2DB435BB27A18127852B21340BC
S315200000E05AB27B181A707B1808007A1812780421E5
S315200000F08A431A70034A3B181B781375C046BD46BF
S3152000010004B080BD0010024080B582B000AF02006E
S31520000110FB1D1A70FB1D1B78082B0CD002DC002B54
S3152000012005D01AE0102B0DD0182B12D015E0182070
S31520000130FFF7C2FF11E00820FFF79CFF1020FFF712
S31520000140BBFF0AE01020FFF795FF0820FFF7B4FF5A
S3152000015003E01820FFF78EFFC046C046BD4602B01A
S3152000016080BD80B500AF4020FFF784FF0A2000F055
S3152000017075FB7820FFF7A0FF1E2000F084FB2020CF
S31520000180FFF778FF642000F07EFB18213E2000F068
S31520000190E7F818213E2000F0E3F818213F2000F070
S315200001A0DFF81821C02000F0DBF81821402000F0ED
S315200001B0D7F81821B82000F0D3F80020FFF7A4FFC5
S315200001C0C046BD4680BD80B582B000AF4020FFF757
S315200001D073FF144B144A1A600120FFF76DFF0220AB
S315200001E0FFF748FF00F012FB4020FFF743FF00F027
S315200001F00DFB0C4B5B7CDAB2FB1D7F218A431A7008
S315200002004020FFF759FF00F001FBFB1D1B78002B58
S3152000021000D0E9E7C046034B044A1A60C046BD46F3
S3152000022002B080BD00100240555500005555555569
S3152000023080B584B000AF0200FB1D1A704020FFF786
S315200002403BFF1C4B1C4A1A600320FFF713FFFB1DC4
S315200002501B781800FFF758FF00F0D8FA4020FFF768
S3152000026009FF00F0D3FA134A0F23FB18527C1A70A9
S315200002704020FFF721FF0F4B104A1A60FB1D1B7809
S315200002800822134004D00820FFF73EFFFFF79BFF0C
S31520000290FB1D1B781022134004D01020FFF734FFDB
S315200002A0FFF791FF0F23FB181B781800BD4604B0FB
S315200002B080BDC04600100240555500005555555585
S315200002C080B582B000AF0200FB1D1A70FB1D1B78A3
S315200002D01800FFF7ADFFFB1D1B781800FFF7A8FFDE
S315200002E003001800BD4602B080BD80B582B000AFC5
S315200002F00200FB1D1A70BB1D0A1C1A70174AFB1D33
S315200003001B78537500F082FA4020FFF7B3FE00F009
S315200003107DFA4020FFF7D0FEBB1D1B780822134034
S3152000032004D00820FFF7F0FEFFF74DFFBB1D1B781A
S315200003301022134004D01020FFF7E6FEFFF743FFFC
S31520000340064B00225A754020FFF794FE0020FFF747
S31520000350DBFEC046BD4602B080BDC046001002404E
S3152000036080B582B000AF0200FB1D1A70BB1D0A1CAF
S315200003701A704020FFF7A0FEBB1D1B781800FFF760
S31520000380C3FE0320FFF798FEBB1D1A78FB1D1B78C2
S3152000039011001800FFF7A9FFC046BD4602B080BD78
S315200003A080B582B000AF0200FB1D1A70BB1D0A1C6F
S315200003B01A704020FFF780FEBB1D1B781800FFF740
S315200003C0A3FE0220FFF778FE0120FFF753FEBB1D98
S315200003D01A78FB1D1B7811001800FFF786FFC04610
S315200003E0BD4602B080BD80B582B000AF01237B60E0
S315200003F011E001233B6008E039687B680022180081
S3152000040000F034F83B6801333B603B68402BF3DD5A
S315200004107B6801337B607B68802BEADDC046BD4666
S3152000042002B080BD80B582B000AF00237B6013E0B0
S3152000043000233B600AE00C4A7B68DB00D2183B684D
S31520000440D31800221A703B6801333B603B68072BA8
S31520000450F1DD7B6801337B607B68FF2BE8DDC046DE
S31520000460BD4602B080BDC0467811002080B586B05A
S3152000047000AFF860B9607A60BB68013B264A13403A
S3152000048004D5013B08225242134301331A000123AB
S3152000049093401A001723FB181A707B68002B19D07B
S315200004A0BB683F331A00FB68013B002B00DA073399
S315200004B0DB101A49D2008A18D05CBA683F3217215D
S315200004C0791809780143C8B21449D2008A18011C48
S315200004D0D1541DE0BB683F331A00FB68013B002B5B
S315200004E000DA0733DB100D49D2008A18D25C52B2EB
S315200004F017217918097849B2C94349B20A4051B23D
S31520000500BA683F32C8B20549D2008A18011CD154B4
S31520000510C046BD4606B080BD070000807811002089
S3152000052080B584B000AFF860B960FB1D1A70064A2A
S31520000530FB68DB00D218BB68D318FA1D12781A7034
S31520000540C046BD4604B080BD7811002080B584B079
S3152000055000AFF860B960FB1D1A70FB684033064A8D
S31520000560DB00D218BB68D318FA1D12781A70C04661
S31520000570BD4604B080BDC0467811002090B585B038
S3152000058000AF0023BB600D23FB1800221A705AE02F
S315200005900D23FB181B78002B01D1082200E0102226
S315200005A0FB1D1A700E23FB1800221A7040E00E2342
S315200005B0FB181B78482252421343DAB2FB1D1B78E4
S315200005C019001000FFF7CCFEFB1D1B7819004020F8
S315200005D0FFF7C6FE0F23FB1800221A701DE00D231D
S315200005E0FB181B7801339A010F243B191B78D2186C
S315200005F00E23FB181B781849D2008A18D25CFB1DE3
S315200006001B7819001000FFF7CBFE3B191A783B190F
S3152000061001321A70BB680133BB600F23FB181B78AD
S315200006203F2BDCD90E217B181A787B1801321A70E1
S315200006300E23FB181B78072BB9D90D217B181A78A6
S315200006407B1801321A700D23FB181B78012B9FD9BA
S31520000650C046BD4605B090BD7811002090B587B044
S3152000066000AF3B00174A13CA13C312681A6000234F
S315200006703B6101237B611CE07B69180000F048F890
S3152000068000F070F803003B613B69002B0ED0002080
S3152000069000F03EF87B69013BDBB29B00DAB23B6996
S315200006A0DBB2D318DBB2013BDBB206E07B69013358
S315200006B07B617B69042BDFDDFF231800BD4607B075
S315200006C090BDC046F419002090B587B000AF020057
S315200006D0FB1D1A700823FB180B4A13CA13C3126892
S315200006E01A60FB1D1B780F2B07D8FB1D1B780749AB
S315200006F00822BA18D35C0B7502E0044B00221A7547
S31520000700C046BD4607B090BD041A0020000C02402A
S3152000071080B582B000AF78607B68022B0CD002D8FF
S31520000720012B05D014E0032B0AD0042B0CD00FE0AC
S315200007300B4B10225A750EE0094B20225A750AE0FF
S31520000740074B40225A7506E0054B80225A7502E077
S31520000750034B00225A75C046BD4602B080BDC04636
S31520000760000C024080B500AF134B5B7CDBB21A0055
S315200007700823134001D004231BE00F4B5B7CDBB224
S315200007801A000423134001D0032312E00A4B5B7C9A
S31520000790DBB21A000223134001D0022309E0064BE4
S315200007A05B7CDBB21A000123134001D0012300E059
S315200007B000231800BD4680BD000C024080B500AF66
S315200007C00F4B1B6800221A600E4B1B6829221A60E9
S315200007D00D4B1B6800221A60094B1B6805221A6004
S315200007E0C046074B1B681A6880235B021340F8D06B
S315200007F0034B1B6800221A60C046BD4680BDC0461A
S3152000080090190020941900209819002080B500AF77
S315200008100F4B1B6800221A600E4B1B6853221A606E
S315200008200D4B1B6800221A60094B1B6805221A60B3
S31520000830C046074B1B681A6880235B021340F8D01A
S31520000840034B1B6800221A60C046BD4680BDC046C9
S3152000085090190020941900209819002080B584B0A2
S3152000086000AF78600023FB6004E0FFF7CFFFFB6852
S315200008700133FB607B685B00FA689A42F5DBC04671
S31520000880BD4604B080BD80B582B000AF78607B687D
S315200008901800FFF7E3FFC046BD4602B080BD80B515
S315200008A084B000AFF860B9607A60FB68BA685A60B5
S315200008B0FB687A689A60C046BD4604B080BD80B5A4
S315200008C084B000AF78600023FB601CE07B68DA68A8
S315200008D07B681968FB6804335B00CB1804331B78EC
S315200008E0D0187B681A697B681968FB6804335B003B
S315200008F0CB1805331B78D31801221900FFF7B6FD54
S31520000900FB680133FB60FB68132BDFD9C046BD466D
S3152000091004B080BD80B584B000AF78600023FB6052
S315200009201CE07B68DA687B681968FB6804335B0027
S31520000930CB1804331B78D0187B681A697B68196832
S31520000940FB6804335B00CB1805331B78D3180022D1
S315200009501900FFF78BFDFB680133FB60FB68132B47
S31520000960DFD9C046BD4604B080BD80B582B000AF99
S3152000097078607B689B697A68100098477B68DA689C
S315200009807B685B68D2187B68DA607B681A697B684B
S315200009909B68D2187B681A617B685B697A6810004D
S315200009A09847C046BD4602B080BD80B584B000AF32
S315200009B078603960094BFB60FFF72AFBFFF7D1FB14
S315200009C0FFF711FDFB681B6AF8680122042198478E
S315200009D0FB68DB69FA6810009847F9E7D019002010
S315200009E080B582B000AFFFF713FBFFF7BAFBFFF726
S315200009F0FAFC00237B6008E07B6801220A211800AC
S31520000A00FFF734FD7B6801337B607B687F2BF3D94E
S31520000A1000237B6008E07B68012219000A20FFF78B
S31520000A2025FD7B6801337B607B683F2BF3D9FA2356
S31520000A305B001800FFF727FF00237B6008E07B6838
S31520000A4000220A211800FFF711FD7B6801337B6025
S31520000A507B687F2BF3D900237B6008E07B6800222C
S31520000A6019000A20FFF702FD7B6801337B607B6853
S31520000A703F2BF3D9C046BD4602B080BD80B582B0BB
S31520000A8000AF78607B68DB68002B07DD7B68DA685F
S31520000A907B681B685B68D318802B01DD01230EE081
S31520000AA07B681B69002B07DD7B681A697B681B68DE
S31520000AB09B68D318402B01DD022300E00023180099
S31520000AC0BD4602B080BD90B585B000AF7860396074
S31520000AD0214BFB60FFF79CFAFFF743FBFFF74EFD28
S31520000AE0FB687822DA60FB681E221A61FB681B6AA3
S31520000AF0F868012204219847FB681800FFF7BEFF1B
S31520000B000300BB60BB68002B1BD0BB68012B02D047
S31520000B10022B0BD015E0FB681C6AFB685B68594208
S31520000B20FB689A68FB681800A0470AE0FB681C6A05
S31520000B30FB685968FB689B685A42FB681800A04707
S31520000B40C046FB68DB69FA6810009847FFF716FD78
S31520000B501E20FFF798FECFE7D0190020B0B586B04B
S31520000B6000AF78603960334B7B61FFF751FAFFF7AE
S31520000B70F8FAFFF738FC7B69DB697A691000984739
S31520000B802820FFF780FE13257C19FFF767FD030059
S31520000B9023707B191B78042B0FD002DC012B14D079
S31520000BA022E0062B02D0092B17D01DE07B691B6A99
S31520000BB0786900220221984716E07B691B6A022287
S31520000BC051427869002298470EE07B691B6A02220F
S31520000BD0524278690021984706E07B691B6A78694A
S31520000BE0022200219847C0467B691800FFF746FF7E
S31520000BF00300FB60FB68002BBDD0FB68012B02D0F5
S31520000C00022B0BD015E07B691C6A7B695B68594215
S31520000C107B699A687B691800A0470AE07B691C6A91
S31520000C207B6959687B699B685A427B691800A04793
S31520000C30C046A0E7D019002080B584B000AFFF23BE
S31520000C40FB601BE00023BB6012E0FB68013B164AF9
S31520000C50DB00D218BB68D3181978134AFB68DB006F
S31520000C60D218BB68D3180A1C1A70BB680133BB6044
S31520000C70BB68072BE9DDFB68013BFB60FB68002BAB
S31520000C80E0DC00237B6007E0074A7B68D31800225C
S31520000C901A707B6801337B607B68072BF4DDC046C6
S31520000CA0BD4604B080BDC0467811002080B584B012
S31520000CB000AF0023FB601BE00023BB6012E0FB6853
S31520000CC00133174ADB00D218BB68D3181978144AA7
S31520000CD0FB68DB00D218BB68D3180A1C1A70BB68E5
S31520000CE00133BB60BB68072BE9DDFB680133FB6082
S31520000CF0FB68FE2BE0DD00237B600AE00849FF232A
S31520000D00DB007A688A18D31800221A707B680133B0
S31520000D107B607B68072BF1DDC046BD4604B080BDF5
S31520000D207811002090B58DB000AF78603960082327
S31520000D30FB18174A13CA13C313CA13C303CA03C320
S31520000D400123FB621CE00F23BB6213E07A68BB6AB7
S31520000D50D01A3A68FB6AD11A0823FA18BB6A5B00D4
S31520000D60D218FB6AD3181B781A00FFF7D9FBBB6A87
S31520000D70013BBB62BB6A002BE8DAFB6A013BFB62E4
S31520000D80FB6A002BDFDAC046BD460DB090BDC046DB
S31520000D90141A002080B582B000AFFB1D00221A7005
S31520000DA00320FFF7B5FC0420FFF7B2FCFFF7DAFCBF
S31520000DB00300032B02D1FB1D01221A700020FFF72E
S31520000DC0A7FCFB1D1B781800BD4602B080BD80B570
S31520000DD082B000AFFB1D00221A700420FFF798FC9A
S31520000DE0FFF7C0FC0300042B02D1FB1D01221A7061
S31520000DF00020FFF78DFCFB1D1B781800BD4602B0B6
S31520000E0080BD80B582B000AFFB1D00221A70042081
S31520000E10FFF77EFCFFF7A6FC0300022B02D1FB1D89
S31520000E2001221A700020FFF773FCFB1D1B781800A7
S31520000E30BD4602B080BD80B582B000AFFFF7E8F8AE
S31520000E40FFF78FF9FFF7EEFAFFF798FB07216720E8
S31520000E50FFF768FF00237B6004E000F007F87B685B
S31520000E6001337B607B681F2BF7DDEFE780B500AF92
S31520000E7000F02CF800F072F8134B1B68002B0CDDE9
S31520000E80FFF714FF104B1B681900142000F080F8A0
S31520000E9003001800FFF7F7FC10E00B4B1B68002B34
S31520000EA00CDAFFF7C9FE084B1B685B4219001420B9
S31520000EB000F06EF803001800FFF7E5FCFFF75EFB75
S31520000EC0C046BD4680BDC0466811002080B500AF33
S31520000ED0FFF77DFF031E0FD0FFF793FF031E0BD1F5
S31520000EE01C4B1B68032B03DC1B4B01221A602EE0D4
S31520000EF0194B00221A602AE0FFF769FF031E10D162
S31520000F00FFF77FFF031E0CD0124B1B68033304DB55
S31520000F10114B012252421A6019E00F4B00221A602F
S31520000F2015E00D4B00221A600A4B1B68002B04DDCE
S31520000F30084B1B685A1E074B1A60064B1B68002B72
S31520000F4005DA044B1B685A1C024B1A60FFE7C046A1
S31520000F50BD4680BD681100208C19002080B500AFE9
S31520000F60084B1A68084B1B68D218064B1A60074BA9
S31520000F701A68044B1B68D218044B1A60C046BD463B
S31520000F8080BDC046681100208C19002070110020F9
S31520000F9003460B437FD4002243088B4274D30309B4
S31520000FA08B425FD3030A8B4244D3030B8B4228D355
S31520000FB0030C8B420DD3FF22090212BA030C8B427B
S31520000FC002D31212090265D0030B8B4219D300E01B
S31520000FD0090AC30B8B4201D3CB03C01A5241830BA0
S31520000FE08B4201D38B03C01A5241430B8B4201D350
S31520000FF04B03C01A5241030B8B4201D30B03C01A79
S315200010005241C30A8B4201D3CB02C01A5241830AF2
S315200010108B4201D38B02C01A5241430A8B4201D321
S315200010204B02C01A5241030A8B4201D30B02C01A4B
S315200010305241CDD2C3098B4201D3CB01C01A5241B2
S3152000104083098B4201D38B01C01A524143098B423B
S3152000105001D34B01C01A524103098B4201D30B0124
S31520001060C01A5241C3088B4201D3CB00C01A524149
S3152000107083088B4201D38B00C01A524143088B420E
S3152000108001D34B00C01A5241411A00D201465241A7
S31520001090104670475DE0CA0F00D04942031000D3C6
S315200010A04042534000229C4603098B422DD3030A1B
S315200010B08B4212D3FC22890112BA030A8B420CD32B
S315200010C0890192118B4208D3890192118B4204D354
S315200010D089013AD0921100E08909C3098B4201D3D4
S315200010E0CB01C01A524183098B4201D38B01C01A0E
S315200010F0524143098B4201D34B01C01A5241030985
S315200011008B4201D30B01C01A5241C3088B4201D333
S31520001110CB00C01A524183088B4201D38B00C01AE0
S315200011205241D9D243088B4201D34B00C01A5241B7
S31520001130411A00D20146634652415B10104601D344
S315200011404042002B00D54942704763465B1000D3CE
S31520001150404201B5002000F005F802BD0029F8D074
S3152000116016E770477047C0460000000000000000E8
S315200011700000000000000000000000000000000049
S315200011800000000000000000000000000000000039
S315200011900000000000000000000000000000000029
S315200011A00000000000000000000000000000000019
S3152000199010E000E014E000E018E000E00C00000099
S315200019A00400000004000000000100020100010103
S315200019B001020103020002010202020303010302E3
S315200019C000000000000000000000000000000000F1
S315200019D09C1900200000000000000000010000000B
S315200019E001000000BF080020150900206B09002017
S315200019F09F0800200102030A0405060B0708090CAC
S31520001A000E000F0D065B4F77666D7D7C077F67396D
S31520001A10793F715E1FF03038200C30071001381FD7
S31520001A2067E6E004F004D0069C03B3FD20032006FD
S30920001A30300C1FF839
S70520000000DA
