S01900002E2F44656275672F5375706572506564726F2E7331395F
S315200000000248854600F08BF9FEE7C04600C0012075
S3152000001080B584B000AF786039607B683A681A6032
S315200000200023FB6006E07B68180000F00AF8FB68F6
S315200000300133FB60FB68092BF5DDC046BD4604B0E5
S3152000004080BD80B584B000AF78607B6819680B00EE
S31520000050DB005B1A1A01D21A9200521A13019B1A5C
S31520000060DB005B1A5B015B1ADA009B18DA019B182E
S315200000705B005B1A5A1C7B681A607B681B68FB60F6
S315200000800023BB600EE0FB685A0AFB685B0C5340FA
S31520000090FA685340FB60FB68064A5343FB60BB6823
S315200000A00133BB60BB68022BEDDDFB681800BD4643
S315200000B004B080BD15EC650180B500AF104B114A28
S315200000C01A60114B114A1A600F4B5A680E4B104991
S315200000D00A405A600C4B5A680B4BF02109010A431F
S315200000E05A60094BDA68084B1204120CDA60064B88
S315200000F0DA68054B07490A43DA60C046BD4680BD2B
S315200001000010024055555555000C024055550055D6
S31520000110FF00FFFF0000AAFF80B500AFFFF7CCFF6E
S3152000012000F0C9FB00F028FD00F0D2FDC046BD4618
S3152000013080BD80B500AFBF21402000F0C1F80D4B37
S315200001400D4A9B5C002B01D100F01AF8094B0B4A93
S315200001509B5C002B01D100F01BF800F04DF900F05C
S3152000016023FB0300012B00D0E9E7C046C046BD466D
S3152000017080BDC046AC110020FF010000070600002C
S3152000018080B500AF002000F069F8C046BD4680BDAE
S3152000019080B500AFC02000F061F8C046BD4680BDE6
S315200001A090B58DB000AF786039600823FB18174AE8
S315200001B013CA13C313CA13C303CA03C30023FB62A0
S315200001C01CE00023BB6213E07A68BB6AD0183A6849
S315200001D0FB6AD1180823FA18BB6A5B00D218FB6A9F
S315200001E0D3181B781A0000F045FDBB6A0133BB62A9
S315200001F0BB6A0E2BE8DDFB6A0133FB62FB6A002B30
S31520000200DFDDC046BD460DB090BDC0461C1B00209C
S3152000021080B582B000AF78600A00FB1C1A70FB1C08
S315200002201B785F2B15D06F2B02D0382B06D011E010
S315200002307B6806211800FFF7B3FF0BE07B680621D9
S315200002401800FFF7ADFF7B6804211800FFF7A8FF11
S3152000025000E0C046C046BD4602B080BD80B598B01D
S3152000026000AF78600C23FA18144B100019005023A5
S315200002701A0000F091FF0023FB650FE0FB6D1A01C9
S315200002807B68D0180C23FA18FB6DD31808331B781B
S315200002901900FFF7BDFFFB6D0133FB65FB6D032BDB
S315200002A0ECDD7B683F331A007B681100180000F0F4
S315200002B007F8C046BD4618B080BDC0463C1B00208E
S315200002C080B584B000AF786039600F23FB18182200
S315200002D01A7014E00E4A7B68DB00D31807331A78AD
S315200002E00F23FB181B781343D9B2094A7B68DB001E
S315200002F0D31807330A1C1A707B6801337B607A682F
S315200003003B689A42E6DDC046BD4604B080BDC04685
S31520000310AC11002080B500AFC046BD4680BD80B57B
S3152000032000AFFFF7F9FEFFF704FFFCE780B500AF4B
S315200003300C4B00221A600C4B01221A600B4B002238
S315200003401A60084B05221A60C046064B1A6880239D
S315200003505B021340F9D0034B00221A60C046BD460B
S3152000036080BDC04610E000E014E000E018E000E0A8
S3152000037080B500AF0C4B00221A600C4B01221A608C
S315200003800B4B00221A60084B05221A60C046064B0A
S315200003901A6880235B021340F9D0034B00221A60AF
S315200003A0C046BD4680BDC04610E000E014E000E037
S315200003B018E000E080B584B000AF78600023FB60D1
S315200003C004E0FFF7D5FFFB680133FB607B685B0029
S315200003D0FA689A42F5DBC046BD4604B080BD80B5BA
S315200003E082B000AF78607B681800FFF7E3FFC04655
S315200003F0BD4602B080BDC04680B500AF00F03AF8D9
S3152000040000F098F81A4B1B69002B11DD00F00AFD4D
S31520000410174B1B691900C82000F0D2FD03001800F5
S31520000420FFF7DDFF124B1B6A5A1C114B1A6215E0AF
S315200004300F4B1B69002B11DA00F0BAFC0C4B1B6921
S315200004405B421900C82000F0BBFD03001800FFF72F
S31520000450C6FF074B1B6A5A1C054B1A6200F038FC74
S31520000460034B180000F08EF8C046BD4680BDC0463E
S31520000470EC1A002080B500AF00F07CFD031E0FD0E3
S3152000048000F08BFD031E0BD1284B1B69032B03DCCD
S31520000490264B01229A612DE0244B00229A6129E005
S315200004A000F068FD031E10D100F077FD031E0CD06E
S315200004B01E4B1B69033304DB1C4B012252429A61FB
S315200004C018E01A4B00229A6114E0184B00229A6118
S315200004D0164B1B69002B04DD144B1B695A1E134B4C
S315200004E01A61124B1B69002B04DA104B1B695A1C2C
S315200004F00E4B1A6100F03AF8031E03D00B4B012273
S31520000500DA610FE0094B0022DA6100F01DFD031EBF
S3152000051008D0064B05225A61044B0122DA61034BAF
S31520000520034A5A62C046BD4680BDC046EC1A00202A
S31520000530FC19002080B500AF0B4B1A690A4B9B694A
S31520000540D218094B1A61084B5A69074BDB69D21836
S31520000550054B5A61044BDA68034B5B69D218024B90
S31520000560DA60C046BD4680BDEC1A002080B500AFDB
S31520000570034BDB68DB0FDBB21800BD4680BDC046EF
S31520000580EC1A002080B58AB000AF78607B685B6A81
S315200005903B627B68DB68824A134004D5013B082214
S315200005A0524213430133FB612623FB1800221A70A3
S315200005B0E4E07B68DA687B681B68D318402B0CDD87
S315200005C02623FB181A787B68DB684021CB1A00D5D6
S315200005D00733DB109A4200DACAE07B68DB683F22E9
S315200005E0D21A7B681B68D31A00D50733DB10DAB220
S315200005F02623FB181B78D318DBB25BB24822524263
S3152000060013435BB2DBB20821180000F053FA7B6873
S315200006109B685BB2402213435BB2DBB20821180011
S3152000062000F048FA2723FB1800221A7098E02623A8
S31520000630FB181B78002B21D12623FB181A787B6800
S315200006405B6853431A002723FB181B78D3183A6A92
S31520000650D3183B610F203B183A6912781A703B1861
S315200006601A78FB690821CB1A9A403B181A703B1856
S315200006701B780821180000F03DFA6BE026203B1875
S315200006801B785A1E7B685B6853431A002723FB1886
S315200006901B78D3183A6AD318BB6125217B18BA690F
S315200006A012781A707B181A78FB691A417B181A700F
S315200006B03B181A787B681B68002B00DA0733DB109F
S315200006C09A4227DA7B685B681A00BB699A18172159
S315200006D07B1812781A70FB690822D31AFF221A4156
S315200006E013005BB208003A18127852B213405AB27D
S315200006F03B181A703B181A78FB690821CB1A9A40C6
S315200007003B181A702522BB18B9183A18097812789E
S315200007100A431A707B689B6840331A002723FB180C
S315200007201B78D2187B68DB68002B00DA0733DB10D6
S315200007305B4207331B49D2008A18D15C25203B181F
S315200007403A1812780A431A703B181B7808211800A9
S3152000075000F0D0F927217B181A787B1801321A70FD
S315200007602723FB181A787B685B689A4200DA5EE7D3
S3152000077026217B181A787B1801321A702623FB183B
S315200007801A787B681B68002B00DA0733DB100133ED
S315200007909A4200DA0DE7C046BD460AB080BDC04683
S315200007A007000080AC11002080B500AF00231800A0
S315200007B0BD4680BD80B500AF024B1B6A1800BD4602
S315200007C080BDC046EC1A002080B584B000AF020080
S315200007D0FB1D1A700C4A0F203B18127D1A703B180D
S315200007E03918FA1D097812780A431A703B183A18F4
S315200007F0127804218A431A70034A3B181B78137512
S31520000800C046BD4604B080BD0010024080B584B00D
S3152000081000AF0200FB1D1A700F4A0F217B18127DB4
S315200008201A70FB1D1B785BB2DB435BB27A18127819
S3152000083052B213405AB27B181A707B1808007A18E5
S31520000840127804218A431A70034A3B181B781375C1
S31520000850C046BD4604B080BD0010024080B582B0BF
S3152000086000AF0200FB1D1A70FB1D1B78082B0CD055
S3152000087002DC002B05D01AE0102B0DD0182B12D03D
S3152000088015E01820FFF7C2FF11E00820FFF79CFFB4
S315200008901020FFF7BBFF0AE01020FFF795FF082086
S315200008A0FFF7B4FF03E01820FFF78EFFC046C046CF
S315200008B0BD4602B080BD80B500AF4020FFF784FF63
S315200008C00A20FFF777FD7820FFF7A0FF1E20FFF70D
S315200008D086FD2020FFF778FF6420FFF780FD182192
S315200008E03E2000F0E7F818213E2000F0E3F818211A
S315200008F03F2000F0DFF81821C02000F0DBF8182197
S31520000900402000F0D7F81821B82000F0D3F80020B6
S31520000910FFF7A4FFC046BD4680BD80B582B000AFBC
S315200009204020FFF773FF144B144A1A600120FFF78B
S315200009306DFF0220FFF748FFFFF71AFD4020FFF763
S3152000094043FFFFF715FD0C4B5B7CDAB2FB1D7F21C5
S315200009508A431A704020FFF759FFFFF709FDFB1D58
S315200009601B78002B00D0E9E7C046034B044A1A60E7
S31520000970C046BD4602B080BD00100240555500005D
S315200009805555555580B584B000AF0200FB1D1A7031
S315200009904020FFF73BFF1C4B1C4A1A600320FFF741
S315200009A013FFFB1D1B781800FFF758FFFFF7E0FC2D
S315200009B04020FFF709FFFFF7DBFC134A0F23FB1844
S315200009C0527C1A704020FFF721FF0F4B104A1A6005
S315200009D0FB1D1B780822134004D00820FFF73EFF9A
S315200009E0FFF79BFFFB1D1B781022134004D010201D
S315200009F0FFF734FFFFF791FF0F23FB181B78180032
S31520000A00BD4604B080BDC0460010024055550000CA
S31520000A105555555580B582B000AF0200FB1D1A70A2
S31520000A20FB1D1B781800FFF7ADFFFB1D1B78180078
S31520000A30FFF7A8FF03001800BD4602B080BD80B5B1
S31520000A4082B000AF0200FB1D1A70BB1D0A1C1A7073
S31520000A50174AFB1D1B785375FFF78AFC4020FFF7CA
S31520000A60B3FEFFF785FC4020FFF7D0FEBB1D1B78A9
S31520000A700822134004D00820FFF7F0FEFFF74DFFB1
S31520000A80BB1D1B781022134004D01020FFF7E6FE72
S31520000A90FFF743FF064B00225A754020FFF794FECE
S31520000AA00020FFF7DBFEC046BD4602B080BDC04633
S31520000AB00010024080B582B000AF0200FB1D1A7004
S31520000AC0BB1D0A1C1A704020FFF7A0FEBB1D1B7819
S31520000AD01800FFF7C3FE0320FFF798FEBB1D1A7808
S31520000AE0FB1D1B7811001800FFF7A9FFC046BD4665
S31520000AF002B080BD80B582B000AF0200FB1D1A7027
S31520000B00BB1D0A1C1A704020FFF780FEBB1D1B78F8
S31520000B101800FFF7A3FE0220FFF778FE0120FFF75B
S31520000B2053FEBB1D1A78FB1D1B7811001800FFF71A
S31520000B3086FFC046BD4602B080BD80B582B000AFFC
S31520000B4001237B6011E001233B6008E039687B6864
S31520000B500022180000F034F83B6801333B603B6804
S31520000B60402BF3DD7B6801337B607B68802BEADDDD
S31520000B70C046BD4602B080BD80B582B000AF00231E
S31520000B807B6013E000233B600AE00C4A7B68DB00B5
S31520000B90D2183B68D31800221A703B6801333B6099
S31520000BA03B68072BF1DD7B6801337B607B68FF2B7D
S31520000BB0E8DDC046BD4602B080BDC046AC1100206F
S31520000BC080B586B000AFF860B9607A60BB68013B3B
S31520000BD0264A134004D5013B0822524213430133CF
S31520000BE01A00012393401A001723FB181A707B68FA
S31520000BF0002B19D0BB683F331A00FB68013B002B42
S31520000C0000DA0733DB101A49D2008A18D05CBA689A
S31520000C103F321721791809780143C8B21449D20006
S31520000C208A18011CD1541DE0BB683F331A00FB68AB
S31520000C30013B002B00DA0733DB100D49D2008A185E
S31520000C40D25C52B217217918097849B2C94349B200
S31520000C500A4051B2BA683F32C8B20549D2008A1852
S31520000C60011CD154C046BD4606B080BD0700008099
S31520000C70AC11002080B584B000AFF860B960FB1DD0
S31520000C801A70064AFB68DB00D218BB68D318FA1D17
S31520000C9012781A70C046BD4604B080BDAC11002043
S31520000CA080B584B000AFF860B960FB1D1A70FB6890
S31520000CB04033064ADB00D218BB68D318FA1D1278D7
S31520000CC01A70C046BD4604B080BDC046AC11002097
S31520000CD090B585B000AF0023BB600D23FB18002222
S31520000CE01A705AE00D23FB181B78002B01D108221D
S31520000CF000E01022FB1D1A700E23FB1800221A702A
S31520000D0040E00E23FB181B78482252421343DAB2E6
S31520000D10FB1D1B7819001000FFF7CCFEFB1D1B786E
S31520000D2019004020FFF7C6FE0F23FB1800221A7079
S31520000D301DE00D23FB181B7801339A010F243B1964
S31520000D401B78D2180E23FB181B781849D2008A1854
S31520000D50D25CFB1D1B7819001000FFF7CBFE3B1958
S31520000D601A783B1901321A70BB680133BB600F2316
S31520000D70FB181B783F2BDCD90E217B181A787B18A1
S31520000D8001321A700E23FB181B78072BB9D90D21B7
S31520000D907B181A787B1801321A700D23FB181B78E2
S31520000DA0012B9FD9C046BD4605B090BDAC11002091
S31520000DB080B584B000AFFF23FB601BE00023BB603F
S31520000DC012E0FB68013B164ADB00D218BB68D31839
S31520000DD01978134AFB68DB00D218BB68D3180A1CA3
S31520000DE01A70BB680133BB60BB68072BE9DDFB6863
S31520000DF0013BFB60FB68002BE0DC00237B6007E007
S31520000E00074A7B68D31800221A707B6801337B60FF
S31520000E107B68072BF4DDC046BD4604B080BDC046C6
S31520000E20AC11002080B584B000AF0023FB601BE02E
S31520000E300023BB6012E0FB680133174ADB00D2189F
S31520000E40BB68D3181978144AFB68DB00D218BB6834
S31520000E50D3180A1C1A70BB680133BB60BB68072B0A
S31520000E60E9DDFB680133FB60FB68FE2BE0DD002338
S31520000E707B600AE00849FF23DB007A688A18D318CA
S31520000E8000221A707B6801337B607B68072BF1DDBB
S31520000E90C046BD4604B080BDAC11002080B582B0EE
S31520000EA000AF78607B68022B0CD002D8012B05D0CE
S31520000EB014E0032B0AD0042B0CD00FE00B4B10228E
S31520000EC05A750EE0094B20225A750AE0074B40223C
S31520000ED05A7506E0054B80225A7502E0034B002224
S31520000EE05A75C046BD4602B080BDC046000C0240C1
S31520000EF080B500AF134B5B7CDBB21A00082313408E
S31520000F0001D004231BE00F4B5B7CDBB21A000423C9
S31520000F10134001D0032312E00A4B5B7CDBB21A009C
S31520000F200223134001D0022309E0064B5B7CDBB28F
S31520000F301A000123134001D0012300E000231800EA
S31520000F40BD4680BD000C024080B500AF0320FFF7F0
S31520000F50A5FF0420FFF7A2FFFFF7CAFF0300032B1C
S31520000F6004D10020FFF79AFF012300E00023180098
S31520000F70BD4680BD80B500AF0420FFF78FFFFFF789
S31520000F80B7FF0300042B04D10020FFF787FF0123BE
S31520000F9000E000231800BD4680BD80B500AF0420C8
S31520000FA0FFF77CFFFFF7A4FF0300022B04D10020EC
S31520000FB0FFF774FF012300E000231800BD4680BD23
S31520000FC003460B437FD4002243088B4274D3030984
S31520000FD08B425FD3030A8B4244D3030B8B4228D325
S31520000FE0030C8B420DD3FF22090212BA030C8B424B
S31520000FF002D31212090265D0030B8B4219D300E0EB
S31520001000090AC30B8B4201D3CB03C01A5241830B6F
S315200010108B4201D38B03C01A5241430B8B4201D31F
S315200010204B03C01A5241030B8B4201D30B03C01A48
S315200010305241C30A8B4201D3CB02C01A5241830AC2
S315200010408B4201D38B02C01A5241430A8B4201D3F1
S315200010504B02C01A5241030A8B4201D30B02C01A1B
S315200010605241CDD2C3098B4201D3CB01C01A524182
S3152000107083098B4201D38B01C01A524143098B420B
S3152000108001D34B01C01A524103098B4201D30B01F4
S31520001090C01A5241C3088B4201D3CB00C01A524119
S315200010A083088B4201D38B00C01A524143088B42DE
S315200010B001D34B00C01A5241411A00D20146524177
S315200010C0104670475DE0CA0F00D04942031000D396
S315200010D04042534000229C4603098B422DD3030AEB
S315200010E08B4212D3FC22890112BA030A8B420CD3FB
S315200010F0890192118B4208D3890192118B4204D324
S3152000110089013AD0921100E08909C3098B4201D3A3
S31520001110CB01C01A524183098B4201D38B01C01ADD
S31520001120524143098B4201D34B01C01A5241030954
S315200011308B4201D30B01C01A5241C3088B4201D303
S31520001140CB00C01A524183088B4201D38B00C01AB0
S315200011505241D9D243088B4201D34B00C01A524187
S31520001160411A00D20146634652415B10104601D314
S315200011704042002B00D54942704763465B1000D39E
S31520001180404201B5002000F005F802BD0029F8D044
S3152000119016E770477047C046002310B59A4200D123
S315200011A010BDCC5CC4540133F8E7000000000000F9
S315200011B00000000000000000000000000000000009
S315200011C000000000000000000000000000000000F9
S315200011D000000000000000000000000000000000E9
S315200011E000000000000000000000000000000000D9
S315200019A000000000000000000000000000E0F0F849
S315200019B0FCFEFEFFFF7F1F1F0F0E1C1830608000ED
S315200019C01F7FFFC71F1F83010B042434040000243C
S315200019D0728207F800000103864C312240808C1465
S315200019E02838281A0201F8070000000609067BA4F9
S315200019F0A4D53EE5A5BEC60A0601000000E0F0F823
S31520001A00FCFEFEFFFF7F1F1F0F0E1C18306080009C
S31520001A101F7FFFC71F1F83010B04243404000024EB
S31520001A20728207F800000103864C312240808C1414
S31520001A302838281A0201F80700000076497E2B2450
S31520001A4014150E1515262A3A261D000000E0F0F87A
S31520001A50FCFEFEFFFF7F1F1F0F0E1C18306080004C
S31520001A601F7FFFC71F1F83010B042434040000249B
S31520001A70728207F800000183462CB12240808C1424
S31520001A802838281A0201F807000000070A051B64F7
S31520001A90A4B5DEA5B5CE060A0601000000C0E0F01A
S31520001AA0F8FCFCFEFEFE3E3E1E1C383060C00000E8
S31520001AB03EFFFF8F3F3F070317084868080000488E
S31520001AC0E4040FF000000307CC38A3448000182854
S31520001AD0507050340403F00F000000000073AEA5D0
S31520001AE0D60B1DE6A6BCC40404020100200000009B
S31520001AF0140000002000000000000000000000008C
S31520001B0000000000000000000000000000000000AF
S31520001B10AC1900208505002000000000F8070C1CE9
S31520001B2004300CE0E8871CD8066007200F200B60E5
S31520001B3039D0CD8F04C004600C30F81F5F5F5F5F23
S31520001B405F6F6F5F5F385F5F5F6F5F6F6F5F5F6F46
S31520001B505F6F5F5F5F5F385F5F6F385F5F5F6F5F8D
S31520001B605F5F5F5F5F5F5F5F6F5F5F5F5F5F5F6F3F
S31520001B706F5F6F5F5F386F5F5F6F5F5F5F5F6F5F26
S31120001B806F5F5F5F5F5F5F6F5F5F5F5F9F
S70520000000DA
