S01900002E2F44656275672F5375706572506564726F2E7331395F
S315200000000248854600F098FFFEE7C04600C0012062
S3152000001080B500AF0C4B00221A600C4B29221A60C7
S315200000200B4B00221A60084B05221A60C046064B6D
S315200000301A6880235B021340F9D0034B00221A6012
S31520000040C046BD4680BDC04610E000E014E000E09A
S3152000005018E000E080B500AF0C4B00221A600C4B74
S3152000006053221A600B4B00221A60084B05221A6095
S31520000070C046064B1A6880235B021340F9D0034B17
S3152000008000221A60C046BD4680BDC04610E000E092
S3152000009014E000E018E000E080B584B000AF78609E
S315200000A00023FB6004E0FFF7D5FFFB680133FB600C
S315200000B07B685B00FA689A42F5DBC046BD4604B011
S315200000C080BD80B582B000AF78607A6813005B018E
S315200000D09B1A9B009B18DB001800FFF7DDFFC0462C
S315200000E0BD4602B080BDC04680B500AF054A064B6E
S315200000F01000190040231A0002F0C2FDC046BD467A
S3152000010080BDC046F036002030370020F8B500AF5D
S3152000011000F066F800F010F9304B18695969002292
S31520000120002301F0BDFD031E17D001F03DFA2B4B35
S315200001305C691B691800210002F032FD03001900DA
S31520000140322001F097FC03001800FFF7BAFF234B7B
S315200001501B6B5A1C214B1A6325E0204B18695969E1
S315200001600022002301F088FD031E1CD001F0E2F9D5
S315200001701A4B5C691B691A00150080221206624020
S3152000018016002800310002F00BFD03001900322072
S3152000019001F070FC03001800FFF793FF0F4B1B6B59
S315200001A05A1E0E4B1A630D4B1869596900220023FB
S315200001B001F05CFD031E09D0084B9869D96900221D
S315200001C0002301F053FD031E00D003E001F040F9A7
S315200001D000F0C2F9C046BD46F8BDC046F036002044
S315200001E0B0B500AF00F0E6FC031E18D000F0F8FC16
S315200001F0031E14D1484B186959690022474B01F058
S315200002003BFD031E05D0444A0023454C136254622D
S3152000021052E0414A00230024136254624CE000F06D
S31520000220C9FC031E19D100F0DBFC031E15D03A4B86
S315200002305C691B691800210002F0B2FC03000D3333
S3152000024005DB354A0023374C1362546234E0324AC8
S3152000025000230024136254622EE02F4A0023002438
S31520000260136254622C4B186959690022002301F04D
S3152000027017FD031E0BD0284B186959690022284BFD
S3152000028002F046F903000C00234A13615461224B05
S31520000290186959690022002301F0EEFC031E0BD0D9
S315200002A01D4B1869596900221D4B01F00DFD0300F5
S315200002B00C00194A13615461174BDB68002B0CDCC8
S315200002C0154A002300249361D461134B0022DA607F
S315200002D0114A002300249362D46200F05FF8031EC3
S315200002E005D00D4A104B114C9362D46210E000F0F9
S315200002F04BFC031E0CD0084A00230D4C9361D4619D
S31520000300054A094B094C9362D462034B094A5A6346
S31520000310C046BD46B0BDC046F036002000002C4089
S315200003200000F03F0000F0BFEC51B81E85EBC1BFC6
S315200003300000104000360020B0B500AF164B1869FB
S315200003405969154B5C6A1B6A1A00230001F0BCFC34
S3152000035003000C00104A136154610F4B9869D96948
S315200003600D4BDC6A9B6A1A00230001F0ADFC0300EA
S315200003700C00094A9361D461074BDD68064BDC69A2
S315200003809B691800210002F00BFC0300EA18024BBF
S31520000390DA60C046BD46B0BDF036002080B500AF5D
S315200003A0094BDB68002B08DC074B9869D9690022CA
S315200003B0002301F05BFC031E01D1012300E0002392
S315200003C0DBB21800BD4680BDF036002080B582B075
S315200003D000AF2B4B5B6B7B60294B18695969002258
S315200003E0002301F05DFC031E02D0264B00221A706A
S315200003F0234B186959690022002301F03DFC031E96
S3152000040002D0204B01221A701D4BDB68002B03DD26
S315200004101B4B1D4A5A631DE0194B18695969002266
S31520000420002301F023FC031E03D0154B174A5A6301
S3152000043010E000F0E5FA031E00DA03339B101A00E1
S315200004400123134003D00E4B114A5A6302E00C4B92
S31520000450104A5A630A4B5B6B7A689A420AD1084B58
S315200004609869D9690022002301F000FC031E01D0FF
S31520000470002300E001231800BD4602B080BDC0461F
S31520000480F0360020002D002000360020B035002058
S31520000490A036002050360020F0B585B000AFFE1CF7
S315200004A0FFF794FF030033700023FB601EE0002358
S315200004B0BB6015E0264B5A6B254B5B68B9684B43EE
S315200004C01900FB68CB18D218BB6804331078214971
S315200004D0FA68D2008A18011CD154BB680133BB606C
S315200004E0BB68032BE6DDFB680133FB60FB68132B3F
S315200004F0DDDD00237B6024E0164A7B68DB00D31811
S315200005001A685B681249C96808002038002803DB8E
S3152000051016008640350008E02020401A1600C64006
S3152000052030001E008E403500054313008B401C0012
S31520000530084A7B68DB00D3181C605D607B6801334A
S315200005407B607B68132BD7DDC046BD4605B0F0BD6A
S31520000550F0360020082D002090B589B000AF1C236E
S31520000560FC18FFF733FF030023708A4B5B6BBB61DC
S31520000570884BDB68884A134004D5013B0822524247
S31520000580134301337B611E23FB1800221A70EFE010
S31520000590804BDA687F4B1B68D318362B0CDD1E2365
S315200005A0FB181A787B4BDB683621CB1A00D507332C
S315200005B0DB109A4200DAD5E0764BDB683F22D21A6E
S315200005C0744B1B68D31A00D50733DB10DAB21E230F
S315200005D0FB181B78D318DBB25BB248225242134376
S315200005E05BB2DBB20821180000F024FE694B9B6841
S315200005F05BB2402213435BB2DBB20821180000F045
S3152000060019FE1F23FB1800221A70A3E01E23FB18D5
S315200006101B78002B20D11E23FB181A785D4B5B68B4
S3152000062053431A001F23FB181B78D318BA69D31813
S31520000630BB60FB1DBA6812781A70FB1D1A787B699D
S315200006400821CB1A9A40FB1D1A70FB1D1B78082126
S31520000650180000F00FFE77E01E203B181B785A1E6C
S315200006604C4B5B6853431A001F23FB181B78D31887
S31520000670BA69D3183B611D217B183A6912781A7022
S315200006807B181A787B691A417B181A703B181A78DE
S31520000690404B1B68002B00DA0733DB109A4227DA1F
S315200006A03C4B5B681A003B699A180F217B1812781D
S315200006B01A707B690822D31AFF221A4113005BB2F3
S315200006C008003A18127852B213405AB23B181A70E0
S315200006D03B181A787B690821CB1A9A403B181A7066
S315200006E01D22BB18B9183A18097812780A431A70CD
S315200006F01E23FB181A78274B1B68002B00DA0733BA
S31520000700DB109A4219D1234B9B6840331A001F23D2
S31520000710FB181B78D2181F4BDB68002B00DA073337
S31520000720DB105B4207331D49D2008A18D15C1D229B
S31520000730BB18BA1812780A431A701D23FB181B78A7
S315200007400821180000F096FD1F217B181A787B18C7
S3152000075001321A701F23FB181A780E4B5B689A42D7
S3152000076000DA53E71E217B181A787B1801321A709B
S315200007701E23FB181A78074B1B68002B00DA073359
S31520000780DB1001339A4200DA02E7C046BD4609B0C3
S3152000079090BDC046F036002007000080AC2D00201A
S315200007A080B582B000AF2F4B5B6B3B60BB1D002238
S315200007B01A7049E02B4BDB683F22D21A294B1B6863
S315200007C0D31A00D50733DB101A00BB1D1B78D318AC
S315200007D0DA179B1853405BB24822524213435BB24E
S315200007E0DBB20821180000F025FD1E4B9B685BB28A
S315200007F0402213435BB2DBB20821180000F01AFD39
S31520000800FB1D00221A7014E0BB1D1A78154B5B687D
S3152000081053431A00FB1D1B78D3183A68D3181B784C
S315200008200821180000F026FDFB1D1A78FB1D013259
S315200008301A70FB1D1A780B4B5B689A42E4DBBB1DD2
S315200008401A78BB1D01321A70BB1D1A78054B1B681E
S31520000850002B00DA0733DB109A42ABDBC046BD46DD
S3152000086002B080BDF036002080B582B000AF78603F
S315200008707B68002B01DB7B6800E007231800BD4660
S3152000088002B080BD80B584B000AF0023FB6000239A
S31520000890BB6044E02B4B9B6840331A00BB68D118E1
S315200008A0284BDB68002B00DA0733DB105B42DA1DAE
S315200008B0FB1C2548C90041188A5C1A70214BDB684D
S315200008C0224A134004D5013B0822524213430133E6
S315200008D01A0007239B1A01229A40BB1C1A70FB1C84
S315200008E0FA1CB91C127809780A401A70FB1C1A786F
S315200008F0BB681821C91A134BDB681448034004D57A
S31520000900013B0820404203430133CB189A40130091
S315200009101A00FB681343FB60BB680133BB60BB68EE
S31520000920132BB7DD002000F013F803007B607B68F3
S31520000930FA68134001D0012300E000231800BD46C9
S3152000094004B080BDF0360020AC2D002007000080CA
S3152000095080B588B000AF7860284B5B6B7B61002345
S31520000960BB611F23FB1800221A7030E0234B1B6843
S31520000970002B00DA0733DB105A1E204B5B685343EB
S315200009801A001F217B181B78D3187A69D2181320D6
S315200009903B1812781A703B181B78FB607B6807227D
S315200009A0D31A01229A40FB681340FB607B181B7800
S315200009B01822D21A7B68D318FA689A401300BA69AB
S315200009C01343BB617B181A787B1801321A701F23D8
S315200009D0FB181A78094B5B689A42C7DBBB699B01F7
S315200009E09B0906D17B6801331800FFF7B1FF03008E
S315200009F000E0BB691800BD4608B080BDF036002077
S31520000A0080B500AF024B1B6B1800BD4680BDC046AB
S31520000A10F0360020B0B500AF054B5C691B691800A5
S31520000A20210002F0BDF803001800BD46B0BDC04647
S31520000A30F036002080B584B000AF786039607B68DE
S31520000A403A681A600023FB6006E07B68180000F015
S31520000A500AF8FB680133FB60FB68092BF5DDC0460D
S31520000A60BD4604B080BD80B584B000AF78607B6899
S31520000A7019680B00DB005B1A1A01D21A9200521A6F
S31520000A8013019B1ADB005B1A5B015B1ADA009B18C9
S31520000A90DA019B185B005B1A5A1C7B681A607B681C
S31520000AA01B68FB600023BB600EE0FB685A0AFB68EC
S31520000AB05B0C5340FA685340FB60FB68064A53437D
S31520000AC0FB60BB680133BB60BB68022BEDDDFB68B6
S31520000AD01800BD4604B080BD15EC650180B582B016
S31520000AE000AF78607B68022B0CD002D8012B05D092
S31520000AF014E0032B0AD0042B0CD00FE00B4B102252
S31520000B005A750EE0094B20225A750AE0074B4022FF
S31520000B105A7506E0054B80225A7502E0034B0022E7
S31520000B205A75C046BD4602B080BDC046000C024084
S31520000B3080B500AF134B5B7CDBB21A000823134051
S31520000B4001D004231BE00F4B5B7CDBB21A0004238D
S31520000B50134001D0032312E00A4B5B7CDBB21A0060
S31520000B600223134001D0022309E0064B5B7CDBB253
S31520000B701A000123134001D0012300E000231800AE
S31520000B80BD4680BD000C024080B500AF0320FFF7B4
S31520000B90A5FFFFF7CDFF0300032B04D10020FFF7AD
S31520000BA09DFF012303E00020FFF798FF0023180094
S31520000BB0BD4680BD80B500AF0420FFF78FFFFFF74D
S31520000BC0B7FF0300042B04D10020FFF787FF012382
S31520000BD003E00020FFF782FF00231800BD4680BDFA
S31520000BE080B500AF0420FFF779FFFFF7A1FF0300D0
S31520000BF0022B04D10020FFF771FF012303E0002020
S31520000C00FFF76CFF00231800BD4680BD80B500AFFE
S31520000C100120FFF763FFFFF78BFF0300012B04D1B1
S31520000C200020FFF75BFF012303E00020FFF756FFBC
S31520000C3000231800BD4680BD90B587B000AF3B00AD
S31520000C40174A13CA13C312681A6000233B61012393
S31520000C507B611CE07B691800FFF740FFFFF768FF08
S31520000C6003003B613B69002B0ED00020FFF736FFC7
S31520000C707B69013BDBB29B00DAB23B69DBB2D3185E
S31520000C80DBB2013BDBB206E07B6901337B617B692A
S31520000C90042BDFDDFF231800BD4607B090BDC046FC
S31520000CA07037002080B500AF104B114A1A60114BE7
S31520000CB0114A1A600F4B5A680E4B10490A405A6067
S31520000CC00C4B5A680B4BF02109010A435A60094B19
S31520000CD0DA68084B1204120CDA60064BDA68054B08
S31520000CE007490A43DA60C046BD4680BD001002406F
S31520000CF055555555000C024055550055FF00FFFF30
S31520000D000000AAFF80B500AFFFF7CCFF00F082FD00
S31520000D1000F091F9084B094A1A60074B1A68064BEE
S31520000D2011001800FFF786FE00F0E6FA00F090FBAF
S31520000D30C046BD4680BDC046A82D0020390500000E
S31520000D4080B500AFFFF75CFEFFF75AFE03001A00DE
S31520000D503F23134001D100F025F8FFF7D7F9FFF71D
S31520000D6059FE031E01D000F0C0F8FFF74FFF031E07
S31520000D7003D0FFF7C7FFFFF7B7F9FFF783FD03009F
S31520000D80012BDFD1FFF7BEFFFFF7AEF9C046C04605
S31520000D90BD4680BD80B500AF002000F069F8C04692
S31520000DA0BD4680BD80B500AFC02000F061F8C046CA
S31520000DB0BD4680BD90B58DB000AF78603960082300
S31520000DC0FB18174A13CA13C313CA13C303CA03C390
S31520000DD00023FB621CE00023BB6213E07A68BB6A37
S31520000DE0D0183A68FB6AD1180823FA18BB6A5B0048
S31520000DF0D218FB6AD3181B781A0000F0FBFABB6ADC
S31520000E000133BB62BB6A0F2BE8DDFB6A0133FB6251
S31520000E10FB6A012BDFDDC046BD460DB090BDC04646
S31520000E208037002080B582B000AF78600A00FB1CB6
S31520000E301A70FB1C1B785F2B15D06F2B02D0382B1A
S31520000E4006D011E07B6806211800FFF7B3FF0BE000
S31520000E507B6806211800FFF7ADFF7B680421180088
S31520000E60FFF7A8FF00E0C046C046BD4602B080BDE1
S31520000E7080B598B000AF7860174B1800FFF7F3FDE8
S31520000E8003001321180000F0F1FD0B00BB650823B9
S31520000E90FA18124B1000190050231A0001F0F0FE28
S31520000EA00023FB6511E0FB6D1A017B68D01808232F
S31520000EB0FA18BB6D9B00D218FB6DD3181B7819004E
S31520000EC0FFF7B0FFFB6D0133FB65FB6D032BEADDFE
S31520000ED0C046BD4618B080BDA82D0020A0370020F2
S31520000EE080B500AFC046BD4680BD80B588B000AF96
S31520000EF00023FB6107E03A1DFB69D31800221A7014
S31520000F00FB690133FB61FB69132BF4DDFFF778FDE9
S31520000F100300BB61391DBB690A22180001F0ACFE33
S31520000F2000F0A1FC3B1D01220121180000F0EEFC7F
S31520000F30C046BD4608B080BD80B500AFFFF7E2FED3
S31520000F40FFF7FEFEFCE7C04680B584B000AF020086
S31520000F50FB1D1A700C4A0F203B18127D1A703B1885
S31520000F603918FA1D097812780A431A703B183A186C
S31520000F70127804218A431A70034A3B181B7813758A
S31520000F80C046BD4604B080BD0010024080B584B086
S31520000F9000AF0200FB1D1A700F4A0F217B18127D2D
S31520000FA01A70FB1D1B785BB2DB435BB27A18127892
S31520000FB052B213405AB27B181A707B1808007A185E
S31520000FC0127804218A431A70034A3B181B7813753A
S31520000FD0C046BD4604B080BD0010024080B582B038
S31520000FE000AF0200FB1D1A70FB1D1B78082B0CD0CE
S31520000FF002DC002B05D01AE0102B0DD0182B12D0B6
S3152000100015E01820FFF7C2FF11E00820FFF79CFF2C
S315200010101020FFF7BBFF0AE01020FFF795FF0820FE
S31520001020FFF7B4FF03E01820FFF78EFFC046C04647
S31520001030BD4602B080BD80B500AF4020FFF784FFDB
S315200010400A20FFF729F87820FFF7A0FF1E20FFF7D8
S3152000105038F82020FFF778FF6420FFF732F81821B0
S315200010603E2000F0E7F818213E2000F0E3F8182192
S315200010703F2000F0DFF81821C02000F0DBF818210F
S31520001080402000F0D7F81821B82000F0D3F800202F
S31520001090FFF7A4FFC046BD4680BD80B582B000AF35
S315200010A04020FFF773FF144B144A1A600120FFF704
S315200010B06DFF0220FFF748FFFEF7CCFF4020FFF729
S315200010C043FFFEF7C7FF0C4B5B7CDAB2FB1D7F218B
S315200010D08A431A704020FFF759FFFEF7BBFFFB1D1E
S315200010E01B78002B00D0E9E7C046034B044A1A6060
S315200010F0C046BD4602B080BD0010024055550000D6
S315200011005555555580B584B000AF0200FB1D1A70A9
S315200011104020FFF73BFF1C4B1C4A1A600320FFF7B9
S3152000112013FFFB1D1B781800FFF758FFFEF792FFF1
S315200011304020FFF709FFFEF78DFF134A0F23FB1808
S31520001140527C1A704020FFF721FF0F4B104A1A607D
S31520001150FB1D1B780822134004D00820FFF73EFF12
S31520001160FFF79BFFFB1D1B781022134004D0102095
S31520001170FFF734FFFFF791FF0F23FB181B781800AA
S31520001180BD4604B080BDC046001002405555000043
S315200011905555555580B582B000AF0200FB1D1A701B
S315200011A0FB1D1B781800FFF7ADFFFB1D1B781800F1
S315200011B0FFF7A8FF03001800BD4602B080BD80B52A
S315200011C082B000AF0200FB1D1A70BB1D0A1C1A70EC
S315200011D0174AFB1D1B785375FEF73CFF4020FFF78F
S315200011E0B3FEFEF737FF4020FFF7D0FEBB1D1B786E
S315200011F00822134004D00820FFF7F0FEFFF74DFF2A
S31520001200BB1D1B781022134004D01020FFF7E6FEEA
S31520001210FFF743FF064B00225A754020FFF794FE46
S315200012200020FFF7DBFEC046BD4602B080BDC046AB
S315200012300010024080B582B000AF0200FB1D1A707C
S31520001240BB1D0A1C1A704020FFF7A0FEBB1D1B7891
S315200012501800FFF7C3FE0320FFF798FEBB1D1A7880
S31520001260FB1D1B7811001800FFF7A9FFC046BD46DD
S3152000127002B080BD80B582B000AF0200FB1D1A709F
S31520001280BB1D0A1C1A704020FFF780FEBB1D1B7871
S315200012901800FFF7A3FE0220FFF778FE0120FFF7D4
S315200012A053FEBB1D1A78FB1D1B7811001800FFF793
S315200012B086FFC046BD4602B080BD80B582B000AF75
S315200012C001237B6011E001233B6008E039687B68DD
S315200012D00022180000F034F83B6801333B603B687D
S315200012E0402BF3DD7B6801337B607B68802BEADD56
S315200012F0C046BD4602B080BD80B582B000AF002397
S315200013007B6013E000233B600AE00C4A7B68DB002D
S31520001310D2183B68D31800221A703B6801333B6011
S315200013203B68072BF1DD7B6801337B607B68FF2BF5
S31520001330E8DDC046BD4602B080BDC046AC2D0020CB
S3152000134080B586B000AFF860B9607A60BB68013BB3
S31520001350264A134004D5013B082252421343013347
S315200013601A00012393401A001723FB181A707B6872
S31520001370002B19D0BB683F331A00FB68013B002BBA
S3152000138000DA0733DB101A49D2008A18D05CBA6813
S315200013903F321721791809780143C8B21449D2007F
S315200013A08A18011CD1541DE0BB683F331A00FB6824
S315200013B0013B002B00DA0733DB100D49D2008A18D7
S315200013C0D25C52B217217918097849B2C94349B279
S315200013D00A4051B2BA683F32C8B20549D2008A18CB
S315200013E0011CD154C046BD4606B080BD0700008012
S315200013F0AC2D002080B584B000AFF860B960FB1D2D
S315200014001A70064AFB68DB00D218BB68D318FA1D8F
S3152000141012781A70C046BD4604B080BDAC2D00209F
S3152000142080B584B000AFF860B960FB1D1A70FB6808
S315200014304033064ADB00D218BB68D318FA1D12784F
S315200014401A70C046BD4604B080BDC046AC2D0020F3
S3152000145090B585B000AF0023BB6000237B600D23D1
S31520001460FB1800221A705AE00D23FB181B78002B5C
S3152000147001D1082200E01022FB1C1A700E23FB1853
S3152000148000221A7040E00E23FB181B784822524295
S315200014901343DAB2FB1C1B7819001000FFF7CAFEB3
S315200014A0FB1C1B7819004020FFF7C4FE0F23FB18F6
S315200014B000221A701DE00D23FB181B7801339A01B8
S315200014C00F243B191B78D2180E23FB181B781849BA
S315200014D0D2008A18D25CFB1C1B7819001000FFF77B
S315200014E0C9FE3B191A783B1901321A70BB680133C1
S315200014F0BB600F23FB181B783F2BDCD90E217B18F2
S315200015001A787B1801321A700E23FB181B78072BCA
S31520001510B9D90D217B181A787B1801321A700D2340
S31520001520FB181B78012B9FD9C046BD4605B090BD40
S31520001530AC2D002080B584B000AFFF23FB601BE0FC
S315200015400023BB6012E0FB68013B164ADB00D21881
S31520001550BB68D3181978134AFB68DB00D218BB681E
S31520001560D3180A1C1A70BB680133BB60BB68072BF3
S31520001570E9DDFB68013BFB60FB68002BE0DC002318
S315200015807B6007E0074A7B68D31800221A707B68C5
S3152000159001337B607B68072BF4DDC046BD4604B073
S315200015A080BDC046AC2D002080B584B000AF00239E
S315200015B0FB601BE00023BB6012E0FB680133174A87
S315200015C0DB00D218BB68D3181978144AFB68DB00F5
S315200015D0D218BB68D3180A1C1A70BB680133BB60CB
S315200015E0BB68072BE9DDFB680133FB60FB68FE2B3C
S315200015F0E0DD00237B600AE00849FF23DB007A68F0
S315200016008A18D31800221A707B6801337B607B68A6
S31520001610072BF1DDC046BD4604B080BDAC2D0020B1
S3152000162080B584B000AF0200FB1D1A700C4A0F2152
S315200016307B1812781A70FA1D7B1812781B781343C0
S31520001640DAB208007B1804210A431A70044A010002
S315200016507B181B781370C046BD4604B080BDC046BB
S315200016601410024080B584B000AF0200FB1D1A7032
S315200016700D4A0F217B1812781A70FB1D1B785BB25E
S31520001680DB435BB27A18127852B213405AB27B18F7
S315200016901A70054A7B181B7804210B43DBB21370A2
S315200016A0C046BD4604B080BD1410024080B582B04D
S315200016B000AF0200FB1D1A704020FFF7B1FF064A5B
S315200016C0FB1D1B781370FEF7A3FC4020FFF7CAFF13
S315200016D0C046BD4602B080BD1510024080B582B01E
S315200016E000AF0200FB1D1A700320FFF7BBFFFB1D96
S315200016F01B781800FFF7DAFFC046BD4602B080BD52
S3152000170080B582B000AF0200FB1D1A700120FFF7E2
S3152000171087FF0220FFF7A6FFFB1D1B781800FFF7A7
S31520001720C5FFC046BD4602B080BD80B582B000AFC1
S315200017304020FFF775FFFEF76BFCFEF769FC064AB3
S31520001740FB1D12781A704020FFF78CFFFB1D1B78BB
S315200017501800BD4602B080BD1110024090B583B07E
S3152000176000AF0A4B0A4A1A600320FFF759FFFC1DF7
S31520001770FFF7DBFF03002370044B064A1A60FB1DAC
S315200017801B781800BD4603B090BDC046001002402D
S31520001790555500005555555590B583B000AF0B4BA8
S315200017A00B4A1A600220FFF73BFF0120FFF75AFF82
S315200017B0FC1DFFF7BAFF03002370044B054A1A608D
S315200017C0FB1D1B781800BD4603B090BD00100240DB
S315200017D0555500005555555580B582B000AF0200CD
S315200017E0FB1D1A70C046FFF7D7FF03001A0080239F
S315200017F01340802BF7D00820FEF74EFCFB1D1B78EC
S315200018001800FFF76BFF0220FEF75BFCC046BD46C3
S3152000181002B080BD80B500AF1420FEF73DFC382015
S31520001820FFF744FF2720FEF737FC1420FEF734FC91
S315200018300C20FFF73BFF2720FEF72EFC1420FEF797
S315200018402BFC0120FFF732FF2720FEF725FC142072
S31520001850FEF722FC0620FFF729FF2720FEF71CFCB7
S31520001860C046BD4680BD80B500AF1420FEF714FCEF
S315200018700120FFF733FF0220FEF723FCC046BD46BA
S3152000188080BD80B582B000AF0200FB1D1A70C04635
S31520001890FFF782FF03001A0080231340802BF7D026
S315200018A00820FEF7F9FBFB1D1B781800FFF728FF21
S315200018B00220FEF706FCC046BD4602B080BD80B5BC
S315200018C084B000AF786039603B68002B1ADD3B6836
S315200018D0142B17DC7B68002B14DD7B68022B11DCB4
S315200018E03B68013BFB607B68022B02D1FB684033DF
S315200018F0FB60FB68DBB2802252421343DBB2180046
S31520001900FFF7ECFEC046BD4604B080BD80B586B06C
S3152000191000AFF860B9607A604020FFF737FB4020BF
S31520001920FFF77EFE7A68BB6811001800FFF7C7FF35
S31520001930FB687B6106E07B695A1C7A611B7818007C
S31520001940FFF79FFF7B691B78002BF4D14020FFF720
S3152000195089FE4020FFF7F8FAC046BD4606B080BD96
S31520001960002243088B4274D303098B425FD3030AB8
S315200019708B4244D3030B8B4228D3030C8B420DD3CB
S31520001980FF22090212BA030C8B4202D31212090259
S3152000199065D0030B8B4219D300E0090AC30B8B4297
S315200019A001D3CB03C01A5241830B8B4201D38B0345
S315200019B0C01A5241430B8B4201D34B03C01A5241EA
S315200019C0030B8B4201D30B03C01A5241C30A8B422D
S315200019D001D3CB02C01A5241830A8B4201D38B0218
S315200019E0C01A5241430A8B4201D34B02C01A5241BC
S315200019F0030A8B4201D30B02C01A5241CDD2C3092E
S31520001A008B4201D3CB01C01A524183098B4201D3A9
S31520001A108B01C01A524143098B4201D34B01C01A94
S31520001A20524103098B4201D30B01C01A5241C3080C
S31520001A308B4201D3CB00C01A524183088B4201D37B
S31520001A408B00C01A524143088B4201D34B00C01A67
S31520001A505241411A00D20146524110467047FFE7D3
S31520001A6001B5002000F0F0F802BDC0460029F7D0ED
S31520001A7076E7704703460B437FD4002243088B4208
S31520001A8074D303098B425FD3030A8B4244D3030BDF
S31520001A908B4228D3030C8B420DD3FF22090212BAA4
S31520001AA0030C8B4202D31212090265D0030B8B4220
S31520001AB019D300E0090AC30B8B4201D3CB03C01A0A
S31520001AC05241830B8B4201D38B03C01A5241430BE5
S31520001AD08B4201D34B03C01A5241030B8B4201D3D5
S31520001AE00B03C01A5241C30A8B4201D3CB02C01A40
S31520001AF05241830A8B4201D38B02C01A5241430AB8
S31520001B008B4201D34B02C01A5241030A8B4201D3A6
S31520001B100B02C01A5241CDD2C3098B4201D3CB014D
S31520001B20C01A524183098B4201D38B01C01A5241FC
S31520001B3043098B4201D34B01C01A524103098B4200
S31520001B4001D30B01C01A5241C3088B4201D3CB00EB
S31520001B50C01A524183088B4201D38B00C01A5241CE
S31520001B6043088B4201D34B00C01A5241411A00D27E
S31520001B7001465241104670475DE0CA0F00D04942E7
S31520001B80031000D34042534000229C4603098B4257
S31520001B902DD3030A8B4212D3FC22890112BA030ADF
S31520001BA08B420CD3890192118B4208D38901921161
S31520001BB08B4204D389013AD0921100E08909C309E6
S31520001BC08B4201D3CB01C01A524183098B4201D3E8
S31520001BD08B01C01A524143098B4201D34B01C01AD3
S31520001BE0524103098B4201D30B01C01A5241C3084B
S31520001BF08B4201D3CB00C01A524183088B4201D3BA
S31520001C008B00C01A5241D9D243088B4201D34B00D4
S31520001C10C01A5241411A00D20146634652415B1016
S31520001C20104601D34042002B00D5494270476346F7
S31520001C305B1000D3404201B5002000F005F802BD3C
S31520001C400029F8D016E770477047C0468446101C16
S31520001C5062468C46191C634600E0C0461FB500F05C
S31520001C60EFFB002801D40021C8421FBD10B500F0AB
S31520001C7047FB4042013010BD10B500F0E1FB0028C3
S31520001C8001DB002010BD012010BDC04610B500F0BC
S31520001C90D7FB002801DD002010BD012010BDC04665
S31520001CA010B500F069FB002801DC002010BD0120E2
S31520001CB010BDC04610B500F05FFB002801DA0020F9
S31520001CC010BD012010BDC046F0B54F464646D6464B
S31520001CD00C000903C0B5490A470F5E0039431F03AC
S31520001CE0DB0F9C4665007B0A570F1F436D0DE40FE3
S31520001CF0760DA146C000B846D200AB1B64457BD00A
S31520001D00002B5FDD002E00D0A4E03E00164300D15C
S31520001D1012E15E1E002E00D09EE1871A4346B8428D
S31520001D2080410125C91A4042091A0B0200D431E12B
S31520001D3049024E0A002E00D16EE1300000F066FF07
S31520001D400300083B1F2B00DD61E120223900D21A57
S31520001D509E40D1409F400E439D4200DD51E15D1BD8
S31520001D606B1C1F2B00DD7CE12021C91A3D003000B1
S31520001D708F408840DD40791E8F413100072228435D
S31520001D80D940002507433A40002A09D00F233B407B
S31520001D90042B05D03B1DBB42BF417F42C9191F0002
S31520001DA00B0200D426E26A1CC64B55056D0D9A42DD
S31520001DB000D106E1C44AFF080A40530752023B43BA
S31520001DC0120B8EE0002B00D0B8E06B1C5B055B0D80
S31520001DD0012B00DC30E1871A4346B842B641CB1AC4
S31520001DE076429E1B330200D54CE13B003343A1D102
S31520001DF000220024002570E0002B00DCE5E0002E08
S31520001E0000D183E0AF4EB54260D0802636043743FA
S31520001E10B846382B00DC3EE1434613431F007A1EAA
S31520001E2097413F1887428041404209180B0200D44F
S31520001E30B0E0A44B01359D4200D1C3E0A24A7B0805
S31520001E400A4001210F401F435108D30707221F4391
S31520001E503A4099E79B4EB54238D080263604374320
S31520001E60B846382B00DDDCE01F2B00DC30E11E00FD
S31520001E704746203EF740BC46202B04D04026F31A86
S31520001E8046469E403243170063467A1E97411F43BB
S31520001E90CCE0002B00D104E24346134300D159E1A4
S31520001EA04B07C00818438023C9081B03194208D0D2
S31520001EB04546ED081D4204D14346D008590708433C
S31520001EC02900420FC9007F4D1143C0004B07CA08A5
S31520001ED07C49C00803438D4268D012036D05120B5E
S31520001EE06D0D002112031800130B0A0D12051A435B
S31520001EF0764B2D0513402B435B00E4075B082343F9
S31520001F0019001CBC90469946A246F0BD3E001643D9
S31520001F1012D05E1E002E00D000E187188742804135
S31520001F2041444042091801250B0233D5022585E795
S31520001F3064463300414610001D00C7E7002D00D03F
S31520001F40DAE00C000443F3D05C1C00D19FE15D4C29
S31520001F50A64200D12FE1DB43382B00DD66E11F2BA3
S31520001F6000DD83E120240500E41A0F00DD40D9407E
S31520001F70A0404346A7405B1A441EA04198462F43E3
S31520001F803843171ABA42924143465242991A644636
S31520001F903500CAE607223A40002A00D0F6E64B076B
S31520001FA0CA084849FF083B438D4296D11900114380
S31520001FB000D19EE1802109030A431203120B414DF1
S31520001FC08FE71500002200238BE7002B00D0C7E007
S31520001FD06B1C5F057F0D012F00DCF1E0394DAB4214
S31520001FE000D1B9E085180A00854289414244494218
S31520001FF051180722CF076D082F4349083A401D0084
S31520002000C2E607223049ED1A31403A40BCE63E008E
S315200020102838864000279FE6380000F0F7FD20305C
S315200020208EE6434613431F007A1E9741C71BB842CC
S3152000203080414042091A78E60E003B0006431343CE
S31520002040002D61D1002E00D0F4E0002B00D11BE141
S3152000205064463900100039E71A4FBB427AD0330064
S31520002060FFE630001F3DE840202B03D04021CB1A4D
S315200020709E4037437B1E9F41072207433A4000215B
S31520002080002589E7171A4346BA42B641591A7642BD
S315200020908E1B64464EE61F2B00DDADE0202647460C
S315200020A0F61AB740B9461700B246DF404E463E43C1
S315200020B037005646B240561EB24117434246DA40D2
S315200020C08918AEE6FF070000FFFF7FFFFFFF0F80A6
S315200020D020264746F61AB740B9461700B246DF40D3
S315200020E04E463E4337005646B240561EB24117432F
S315200020F04246DA40891A99E77F4CA6425BD0802473
S3152000210024045B42214327E7002E0CD1002B00D16B
S31520002110CBE0644639001000774DD7E6764FBB42B8
S3152000212018D0330075E6002B14D04B07C00818438F
S315200021308023C9081B03194207D0FC081C4204D17E
S315200021407907D0080843E14621004C46420FC900D2
S315200021501143C000684DB9E61D0000220023C0E6E9
S31520002160002D5BD10D00054300D1E2E65D1C00D1B8
S31520002170B0E0614DAE421FD0DB43382B71DC1F2B04
S3152000218000DD96E020250F00ED1AAF40B946070086
S31520002190AA46DF404D463D432F005546A840D9402C
S315200021A0451EA84188440743BF1897429241514291
S315200021B0414435003AE6644635004146100085E63E
S315200021C00B000343002D00D063E6002BF5D04346D9
S315200021D0134300D17AE6871887428041072241447B
S315200021E0404209183A400B0200D4D5E6434B01354C
S315200021F01940C9E5380069E61E004746203EF740EB
S31520002200BC46202B04D04026F31A46469E40324335
S31520002210170063467A1E97411F4302E6364DAE42AB
S31520002220CAD080252D045B422943A6E70843411ED8
S315200022308841A6E6002B00D148E6871A4346B842D5
S31520002240B641CB1A76429E1B33024BD5171A43460C
S31520002250BA429241591A5242891A072264463A4092
S3152000226092E501430F00791E8F419DE71C000F0068
S31520002270203CE740202B03D04024E31A9940084312
S31520002280411E884138437CE60022002425E6171AA1
S315200022904346BA429241591A5242891A6446350037
S315200022A043E541461000144D10E680220024120317
S315200022B080E61D000F00203DEF40BC46202B03D0BA
S315200022C04025EB1A9940084307006346781E87414C
S315200022D01F4369E7871897429B4141445B42C918CF
S315200022E03500A3E53B003343CED0072231003A40E8
S315200022F052E600231A00F4E5FF070000FFFF7FFFE8
S31520002300F0B54F464646D6468446C0B58046194E59
S3152000231018030F034D00000B5C0082463F0B6D0D2A
S31520002320C90F9146640DDB0F0120B5420AD0B44295
S3152000233003D0A54201D157450CD01CBC90469946E6
S31520002340A246F0BD66463E43F7D1AC42F5D154468F
S315200023501443F2D10120C845EFD1994207D0002D70
S31520002360EBD163461F433800471EB841E5E70020FE
S31520002370E3E7C046FF070000F0B54F464646D6467F
S315200023804D00C0B50E03C90F8A462C491F035C00B9
S315200023908046360B6D0D91463F0B640DDB0F8D424B
S315200023A01ED08C4216D0002D1ED130438446002CE0
S315200023B001D13A4323D06246002A1AD09A4529D021
S315200023C0514602200139084001381CBC90469946E6
S315200023D0A246F0BD39001143E5D002204042F4E781
S315200023E03043FAD1AC420FD0002C0FD13A43E7D07C
S315200023F00CE00122013B934318000130E5E76346D8
S315200024000020002BE1D0DBE73A43E6D19A45D7D12D
S31520002410A542D5DCA54205DBBE42D1D808D0002096
S31520002420BE42D2D250460123013898430130CCE730
S31520002430C845C5D80020C845F4D3C6E7FF07000025
S31520002440F0B54F464646D6464D00C0B50E03C90FD9
S315200024508A462E491F035C008046360B6D0D914639
S315200024603F0B640DDB0F8D4218D08C4211D0002D0E
S3152000247018D130438446002C1ED13A431CD16346E2
S315200024800020002B30D05146022001390840013867
S315200024902AE039001143EAD0022025E03043FBD15F
S315200024A0AC4226D0002C26D13A4324D151460220D4
S315200024B001390840013817E06246002A0FD09A45B4
S315200024C0E1D1A54205DBBE42DDD819D00020BE42AF
S315200024D00AD25046012301389843013004E00122F4
S315200024E0013B9343180001301CBC90469946A246F6
S315200024F0F0BD3A43D0D19A45C5D1A542C3DCE0E729
S31520002500C845C0D80020C845E3D3EDE7FF07000043
S31520002510F8B557464E464546DE460C000903E0B55B
S31520002520490A460F5F0031431E03DB0F760A9B469E
S31520002530530F3343C84E6500C000E40FD2006D0D23
S31520002540A24681467F0D9C469046B74200D1B9E00F
S315200025505B46012673409B46EE1BA34500D183E0D4
S31520002560002E63DD002F00D0B1E06346134300D177
S3152000257023E1731E002B00D0BAE1861A6346B042CF
S3152000258080410125C91A4042091A0B0200D447E1AD
S3152000259049024B0A98464346002B00D189E1404622
S315200025A000F034FB0300083B1F2B00DD7CE12022DA
S315200025B03000D21A4146D040994002009E400A433C
S315200025C09D4200DD6AE15D1B6B1C1F2B00DD94E143
S315200025D0202110003500C91A8E40DA408840DD409F
S315200025E0711E8E41110007222843002506433240E2
S315200025F0002A09D00F233340042B05D0331DB342C4
S31520002600B641764289191E000B0200D43DE26A1CAF
S31520002610914B55056D0D9A4200D119E18F4AF60866
S315200026200A40570752023743120B9BE0002E00D078
S31520002630C5E06E1C7605760D012E00DC48E1674666
S31520002640861ACB1BB042BF417F42B8461F00434685
S31520002650FF1A3B00B8461B0200D55FE137439AD1EB
S3152000266000220024002579E0002E00DCFAE0002F6D
S3152000267000D18DE0784B9D4267D0802367461B04AE
S315200026801F43BC46382E00DC52E1634613435A1ED4
S3152000269093411E1886428041404209180B0200D4FD
S315200026A0BEE06D4B01359D4200D1D2E06B4A7308E6
S315200026B00A4001210E401E435108D30707221E431C
S315200026C0324095E71E00164300D045E740E7624BAF
S315200026D09D423AD0802367461B041F43BC46382EB2
S315200026E000DDEBE01F2E00DC3AE133006746203B9D
S315200026F0DF403B00202E05D04027BF1B6646BE404C
S31520002700324390464646721E96413343DAE0002B0A
S3152000271000D114E26346134300D168E180234E07BB
S31520002720C008C9081B030643194208D06046C008E2
S31520002730184204D163460100D2085E071643F3000F
S315200027409946C900720F444D11434B46DE08424B51
S315200027504F073743CA089D4200D16EE012036D052C
S31520002760120B6D0D00211203130B0A0D12051A43CD
S315200027703B4B2D0513402B435B00E4075B082343AB
S31520002780380019003CBC90469946A246AB46F8BD97
S315200027906346134311D0731E002B00D007E1861821
S315200027A08642804161444042091801250B0237D5F3
S315200027B002257BE73E00614691463500C5E75C462B
S315200027C0002D00D0E1E00B000343F3D0731C00D1B1
S315200027D0ACE1214B9F4200D13AE1F343382B00DD97
S315200027E06FE11F2B00DD8CE120250E00ED1AAE4097
S315200027F0B0460600AA46DE40454635432E005546DD
S31520002800D940A8406346451EA8415B1A9C463043E2
S31520002810161AB242924163465242991A3D00B4E6D4
S3152000282007223240002A00D0E4E60B4BF6084F0779
S315200028303743CA089D4200D090E73B00134300D19E
S31520002840A6E180231B031A431203120B024D89E7CC
S3152000285015000022002785E7FF070000FFFF7FFF06
S31520002860FFFF0F80002E00D0C7E06B1C5E05760DA3
S31520002870012E00DCF0E0C84DAB4200D1B9E085184E
S315200028800A00854289416244494251180722CE07EF
S315200028906D082E43490832401D00A9E6BF49ED1AAE
S315200028A0114007223240A3E6320028388240002613
S315200028B086E6300000F0AAF9203073E6634613431B
S315200028C05A1E9341C61AB04280414042091A5CE61C
S315200028D00E00674606431743002D5ED1002E00D01A
S315200028E0F3E0002F00D11EE15C46614691462CE7BD
S315200028F0A94FBE427BD01E00F1E610001F3DE840E6
S31520002900202B03D04021CB1A9A401643731E9E419A
S315200029100722064332400021002583E7161A634624
S31520002920B2428041591A40420B1A98465C4632E61A
S315200029301F2E00DDABE02027BB1B9A466346574679
S31520002940BB40994613004F46F3401F433B00574672
S31520002950BA40571EBA4113436246F240891898E698
S315200029602027BB1B9A4663465746BB409946130011
S315200029704F46F3401F433B005746BA40571EBA41C5
S3152000298013436246F240891A9CE7834B9F425FD0ED
S3152000299080252D047342294320E7002E0CD1002FD9
S315200029A000D1D0E05C46614691467B4DCDE67A4F1C
S315200029B0BE421CD01E0065E6002F18D0C0084E0768
S315200029C006438020C9080003014208D06346DC087C
S315200029D0044204D12100DA46D2085E071643F300EA
S315200029E0994601245346C900720F11431C406A4D73
S315200029F0ABE61D0000220027B4E6002D59D10B00BE
S31520002A00034300D1D6E6731C00D1B2E0624B9F424D
S31520002A101ED0F343382B6FDC1F2B00DD97E02025DB
S31520002A200E00ED1AAE40B0460600AA46DE404546E8
S31520002A3035432E005546A840D940451EA8418C4412
S31520002A400643B61896429241514261443D0025E61E
S31520002A503D006146914678E60B000343002D00D0E9
S31520002A6055E6002BF5D06346134300D16DE6861854
S31520002A708642804161444042091800220B0200D45C
S31520002A80D0E6464B01351940B2E5B1465DE6330046
S31520002A906746203BDF403B00202E05D04027BF1B4A
S31520002AA06646BE40324390464646721E96413343A2
S31520002AB0EFE5394B9F42CBD080252D047342294325
S31520002AC0A8E70843411E8841A2E6002F00D13CE634
S31520002AD06346861ACF1AB0429B415B42FB1A984640
S31520002AE01B024ED5161A6346B2429241591A5242D9
S31520002AF0891A5C4600227BE501430E00711E8E4139
S31520002B009FE71D000E00203DEE40B046202B04D04E
S31520002B104025EB1A99400843814648464346411EC4
S31520002B208841184374E60022002417E6161A6346E5
S31520002B30B2429241591A5242891A3D0025E5614610
S31520002B409146154D01E680220024120379E61D00E8
S31520002B500E00203DEE40B046202B04D04025EB1A37
S31520002B609940084381464E464346711E8E411E4378
S31520002B7067E7861896429B4161445B42C9183D002F
S31520002B808CE547463743CED007224146324049E6B8
S31520002B9000273A00E6E5C046FF070000FFFF7FFF5B
S31520002BA030B5144D0A034B00120B5B0DC90F0024E0
S31520002BB0AB4211DD104CA34210DC80246403224377
S31520002BC00E4CE41A1F2C0CDD0D48C31ADA401300F4
S31520002BD05C42002900D11C00200030BD094BCC18D6
S31520002BE0FAE7094DE040AC4663449A40130003439C
S31520002BF0EEE7C046FE0300001D040000330400007B
S31520002C0013040000FFFFFF7FEDFBFFFF1C210123C4
S31520002C101B04984201D3000C10391B0A984201D399
S31520002C20000A08391B09984201D30009043902A277
S31520002C30105C40187047C0460403020201010101DE
S31520002C400000000000000000931E10B50C00222B8F
S31520002C5004D900231C000B70200010BD0A2A09D1BC
S31520002C60002807DA2D230B7001214042611800F05D
S31520002C7011F8F1E70021F9E710B5FFF7E5FF10BDE0
S31520002C80002310B59A4200D110BDCC5CC454013348
S31520002C90F8E70000F0B517008DB0252206000D00DC
S31520002CA002A81449FFF7ECFF02AABB1E00240192DA
S31520002CB0222B05D92C70250028000DB0F0BD14005C
S31520002CC030003900FEF7D2FE84460198621CAB180C
S31520002CD0415C5E1E31706646002EF0D11E702B00C0
S31520002CE05A1B9442E8DD1A78295D19702A5501335A
S31520002CF0013CF5E7F037002010B5FFF7CBFF10BDFC
S31520002D00000000000000000000000000000000009D
S31520002D10000000000000000000000000000000008D
S31520002D20000000000000000000000000000000007D
S31520002D30000000000000000000000000000000006D
S315200035B000E0F0F8FCFEFEFFFF7F1F1F0F0E1C1819
S315200035C0306080001F7FFFC71F1F83010B04243438
S315200035D004000024728207F800000103864C312281
S315200035E040808C142838281A0201F80700000006AB
S315200035F009067BA4A4D53EE5A5BEC60A06010000A1
S3152000360000E0F0F8FCFEFEFFFF7F1F1F0F0E1C18C8
S31520003610306080001F7FFFC71F1F83010B042434E7
S3152000362004000024728207F800000103864C312230
S3152000363040808C142838281A0201F80700000076EA
S31520003640497E2B2414150E1515262A3A261D000010
S3152000365000E0F0F8FCFEFEFFFF7F1F1F0F0E1C1878
S31520003660306080001F7FFFC71F1F83010B04243497
S3152000367004000024728207F800000183462CB12240
S3152000368040808C142838281A0201F8070000000709
S315200036900A051B64A4B5DEA5B5CE060A0601000000
S315200036A000C0E0F0F8FCFCFEFEFE3E3E1E1C38305C
S315200036B060C000003EFFFF8F3F3F070317084868A2
S315200036C008000048E4040FF000000307CC38A344A8
S315200036D080001828507050340403F00F00000000BA
S315200036E00073AEA5D60B1DE6A6BCC40404020100D9
S315200036F02000000014000000100000000000000060
S315200037000000000000000000000000000000000093
S315200037100000000000000000000000000000000083
S3152000372000000000B035002000000000000000006E
S31520003730200000001400000010000000000000001F
S315200037400000000000000000000000000000000053
S315200037500000000000000000000000000000000043
S3152000376000000000B035002000000000000000002E
S315200037700102030A0405060B0708090C0E000F0DAB
S31520003780F8070C1C04300CE0E8871CD806600720DC
S315200037900F200B6039D0CD8F04C004600C30F81F89
S315200037A05F5F5F5F5F6F6F5F5F385F5F5F6F6F5FEA
S315200037B05F5F6F5F5F6F5F5F5F5F385F5F5F385F21
S315200037C05F5F6F5F5F5F5F5F5F5F5F5F5F6F5F5FC3
S315200037D05F5F6F5F5F5F6F6F5F385F5F5F6F5F5FBA
S315200037E05F5F6F5F5F6F5F5F5F5F6F5F5F5F5F5F93
S315200037F03031323334353637383961626364656641
S315200038006768696A6B6C6D6E6F70717273747576AA
S30D200038107778797A00000000A8
S70520000000DA
