S01900002E2F44656275672F5375706572506564726F2E7331395F
S315200000000248854600F074FAFEE7C04600C001208B
S3152000001080B500AF0C4B00221A600C4B29221A60C7
S315200000200B4B00221A60084B05221A60C046064B6D
S315200000301A6880235B021340F9D0034B00221A6012
S31520000040C046BD4680BDC04610E000E014E000E09A
S3152000005018E000E080B500AF0C4B00221A600C4B74
S3152000006053221A600B4B00221A60084B05221A6095
S31520000070C046064B1A6880235B021340F9D0034B17
S3152000008000221A60C046BD4680BDC04610E000E092
S3152000009014E000E018E000E080B584B000AF78609E
S315200000A00023FB6004E0FFF7D5FFFB680133FB600C
S315200000B07B685B00FA689A42F5DBC046BD4604B011
S315200000C080BD80B582B000AF78607A6813005B018E
S315200000D09B1A9B009B18DB001800FFF7DDFFC0462C
S315200000E0BD4602B080BDC04680B582B000AF786004
S315200000F07B68022B0CD002D8012B05D014E0032BF1
S315200001000AD0042B0CD00FE00B4B10225A750EE0B0
S31520000110094B20225A750AE0074B40225A7506E001
S31520000120054B80225A7502E0034B00225A75C046C1
S31520000130BD4602B080BDC046000C024080B500AF6F
S31520000140134B5B7CDBB21A000823134001D0042337
S315200001501BE00F4B5B7CDBB21A000423134001D05B
S31520000160032312E00A4B5B7CDBB21A000223134006
S3152000017001D0022309E0064B5B7CDBB21A00012387
S31520000180134001D0012300E000231800BD4680BDA6
S31520000190000C024080B500AF0320FFF7A5FF042026
S315200001A0FFF7A2FFFFF7CAFF0300032B04D10020AD
S315200001B0FFF79AFF012300E000231800BD4680BD0B
S315200001C080B500AF0420FFF78FFFFFF7B7FF0300CE
S315200001D0042B04D10020FFF787FF012300E0002332
S315200001E01800BD4680BD80B500AF0420FFF77CFF18
S315200001F0FFF7A4FF0300022B04D10020FFF774FFB2
S31520000200012300E000231800BD4680BD80B500AF65
S3152000021000F01AF800F074F80A4B1B69002B02DD77
S3152000022000F09CFC05E0074B1B69002B01DA00F06F
S315200002305BFC00F0E9FB034B180000F08BF8C0468E
S31520000240BD4680BDD413002080B500AFFFF7B8FFB0
S31520000250031E0FD0FFF7C7FF031E0BD1274B1B69C9
S31520000260032B03DC254B01229A612DE0234B002230
S315200002709A6129E0FFF7A4FF031E10D1FFF7B3FF11
S31520000280031E0CD01D4B1B69033304DB1B4B0122C1
S3152000029052429A6118E0194B00229A6114E0174BDA
S315200002A000229A61154B1B69002B04DD134B1B6939
S315200002B05A1E124B1A61114B1B69002B04DA0F4B85
S315200002C01B695A1C0D4B1A6100F03EF8031E03D021
S315200002D00A4B0122DA610DE0084B0022DA61FFF7B2
S315200002E059FF031E06D0054B0A2252425A61034B80
S315200002F00122DA61C046BD4680BDC046D413002027
S3152000030080B500AF0F4B1A690E4B9B69D2180D4B67
S315200003101A610C4B9A680B4B1B69D218094B9A60D1
S31520000320084B5A69074BDB69D218064B5A61054BB5
S31520000330DA68044B5B69D218024BDA60C046BD46C8
S3152000034080BDC046D413002080B500AFC04618003B
S31520000350BD4680BD90B587B000AF78607B682033FE
S315200003603B611623FB1800221A7052E07B68DB687B
S315200003703F22D21A7B681B68D31A00D50733DB10BD
S31520000380DAB21623FB181B78D318DBB25BB24822ED
S31520000390524213435BB2DBB20821180000F026FA62
S315200003A07B689B685BB2402213435BB2DBB20821B9
S315200003B0180000F01BFA1723FB1800221A701BE006
S315200003C01623FB181A787B685B6853431A00172498
S315200003D03B191B78D3183A69D2180F217B1812784B
S315200003E01A707B181B780821180000F01FFA3B1999
S315200003F01A783B1901321A701723FB181A787B6872
S315200004005B689A42DCDB16217B181A787B1801324E
S315200004101A701623FB181A787B681B68002B00DAE3
S315200004200733DB109A42A1DBC046BD4607B090BD1C
S3152000043080B500AFC0461800BD4680BD80B500AF70
S31520000440104B114A1A60114B114A1A600F4B5A6809
S315200004500E4B10490A405A600C4B5A680B4BF02140
S3152000046009010A435A60094BDA68084B1204120C38
S31520000470DA60064BDA68054B07490A43DA60C0465C
S31520000480BD4680BD0010024055555555000C024012
S3152000049055550055FF00FFFF0000AAFF80B500AFAD
S315200004A0FFF7CCFF00F0A3F800F002FA00F0ACFA58
S315200004B0C046BD4680BD80B500AF00F001F8FCE720
S315200004C080B500AFFFF7A2FEFFF7B2FF0300012BB6
S315200004D001D100F003F8C046BD4680BD80B500AF0F
S315200004E0C046BD4680BD80B500AFC046BD4680BD76
S315200004F080B500AFFFF7D2FFFFF7DDFFFCE7C04670
S3152000050080B584B000AF0200FB1D1A700C4A0F2084
S315200005103B18127D1A703B183918FA1D0978127883
S315200005200A431A703B183A18127804218A431A7023
S31520000530034A3B181B781375C046BD4604B080BDE0
S315200005400010024080B584B000AF0200FB1D1A7077
S315200005500F4A0F217B18127D1A70FB1D1B785BB288
S31520000560DB435BB27A18127852B213405AB27B1828
S315200005701A707B1808007A18127804218A431A7098
S31520000580034A3B181B781375C046BD4604B080BD90
S315200005900010024080B582B000AF0200FB1D1A7029
S315200005A0FB1D1B78082B0CD002DC002B05D01AE093
S315200005B0102B0DD0182B12D015E01820FFF7C2FFF4
S315200005C011E00820FFF79CFF1020FFF7BBFF0AE091
S315200005D01020FFF795FF0820FFF7B4FF03E018204F
S315200005E0FFF78EFFC046C046BD4602B080BD80B52F
S315200005F000AF4020FFF784FF0A20FFF74DFD78204B
S31520000600FFF7A0FF1E20FFF75CFD2020FFF778FFF5
S315200006106420FFF756FD18213E2000F0E7F8182148
S315200006203E2000F0E3F818213F2000F0DFF81821E3
S31520000630C02000F0DBF81821402000F0D7F8182160
S31520000640B82000F0D3F80020FFF7A4FFC046BD462F
S3152000065080BD80B582B000AF4020FFF773FF144BFA
S31520000660144A1A600120FFF76DFF0220FFF748FFAA
S31520000670FFF7F0FC4020FFF743FFFFF7EBFC0C4BA6
S315200006805B7CDAB2FB1D7F218A431A704020FFF77C
S3152000069059FFFFF7DFFCFB1D1B78002B00D0E9E795
S315200006A0C046034B044A1A60C046BD4602B080BD10
S315200006B000100240555500005555555580B584B05B
S315200006C000AF0200FB1D1A704020FFF73BFF1C4BBA
S315200006D01C4A1A600320FFF713FFFB1D1B78180026
S315200006E0FFF758FFFFF7B6FC4020FFF709FFFFF79B
S315200006F0B1FC134A0F23FB18527C1A704020FFF7D7
S3152000070021FF0F4B104A1A60FB1D1B78082213404D
S3152000071004D00820FFF73EFFFFF79BFFFB1D1B7849
S315200007201022134004D01020FFF734FFFFF791FF6B
S315200007300F23FB181B781800BD4604B080BDC046A9
S3152000074000100240555500005555555580B582B0CC
S3152000075000AF0200FB1D1A70FB1D1B781800FFF767
S31520000760ADFFFB1D1B781800FFF7A8FF030018003C
S31520000770BD4602B080BD80B582B000AF0200FB1D31
S315200007801A70BB1D0A1C1A70174AFB1D1B7853755D
S31520000790FFF760FC4020FFF7B3FEFFF75BFC40202D
S315200007A0FFF7D0FEBB1D1B780822134004D008207B
S315200007B0FFF7F0FEFFF74DFFBB1D1B7810221340FD
S315200007C004D01020FFF7E6FEFFF743FF064B00227A
S315200007D05A754020FFF794FE0020FFF7DBFEC04647
S315200007E0BD4602B080BDC0460010024080B582B032
S315200007F000AF0200FB1D1A70BB1D0A1C1A70402098
S31520000800FFF7A0FEBB1D1B781800FFF7C3FE0320D1
S31520000810FFF798FEBB1D1A78FB1D1B7811001800E8
S31520000820FFF7A9FFC046BD4602B080BD80B582B0A5
S3152000083000AF0200FB1D1A70BB1D0A1C1A70402057
S31520000840FFF780FEBB1D1B781800FFF7A3FE0220D2
S31520000850FFF778FE0120FFF753FEBB1D1A78FB1D1C
S315200008601B7811001800FFF786FFC046BD4602B070
S3152000087080BD80B582B000AF01237B6011E00123EB
S315200008803B6008E039687B680022180000F034F8E5
S315200008903B6801333B603B68402BF3DD7B680133CB
S315200008A07B607B68802BEADDC046BD4602B080BDFA
S315200008B080B582B000AF00237B6013E000233B604D
S315200008C00AE00C4A7B68DB00D2183B68D31800226A
S315200008D01A703B6801333B603B68072BF1DD7B6870
S315200008E001337B607B68FF2BE8DDC046BD4602B046
S315200008F080BDC046D40B002080B586B000AFF8601E
S31520000900B9607A60BB68013B264A134004D5013B97
S3152000091008225242134301331A00012393401A003E
S315200009201723FB181A707B68002B19D0BB683F333E
S315200009301A00FB68013B002B00DA0733DB101A494B
S31520000940D2008A18D05CBA683F3217217918097804
S315200009500143C8B21449D2008A18011CD1541DE0A3
S31520000960BB683F331A00FB68013B002B00DA0733D4
S31520000970DB100D49D2008A18D25C52B217217918A1
S31520000980097849B2C94349B20A4051B2BA683F32DE
S31520000990C8B20549D2008A18011CD154C046BD46AA
S315200009A006B080BD07000080D40B002080B584B03F
S315200009B000AFF860B960FB1D1A70064AFB68DB00C1
S315200009C0D218BB68D318FA1D12781A70C046BD46D5
S315200009D004B080BDD40B002080B584B000AFF86091
S315200009E0B960FB1D1A70FB684033064ADB00D2183B
S315200009F0BB68D318FA1D12781A70C046BD4604B0DB
S31520000A0080BDC046D40B002090B585B000AF002332
S31520000A10BB600D23FB1800221A705AE00D23FB1829
S31520000A201B78002B01D1082200E01022FB1D1A7032
S31520000A300E23FB1800221A7040E00E23FB181B78A9
S31520000A40482252421343DAB2FB1D1B7819001000CC
S31520000A50FFF7CCFEFB1D1B7819004020FFF7C6FED2
S31520000A600F23FB1800221A701DE00D23FB181B789C
S31520000A7001339A010F243B191B78D2180E23FB1839
S31520000A801B781849D2008A18D25CFB1D1B781900E6
S31520000A901000FFF7CBFE3B191A783B1901321A706A
S31520000AA0BB680133BB600F23FB181B783F2BDCD9B7
S31520000AB00E217B181A787B1801321A700E23FB1828
S31520000AC01B78072BB9D90D217B181A787B18013290
S31520000AD01A700D23FB181B78012B9FD9C046BD46E3
S31520000AE005B090BDD40B002080B584B000AFFF23A5
S31520000AF0FB601BE00023BB6012E0FB68013B164A4B
S31520000B00DB00D218BB68D3181978134AFB68DB00C0
S31520000B10D218BB68D3180A1C1A70BB680133BB6095
S31520000B20BB68072BE9DDFB68013BFB60FB68002BFC
S31520000B30E0DC00237B6007E0074A7B68D3180022AD
S31520000B401A707B6801337B607B68072BF4DDC04617
S31520000B50BD4604B080BDC046D40B002080B584B00D
S31520000B6000AF0023FB601BE00023BB6012E0FB68A4
S31520000B700133174ADB00D218BB68D3181978144AF8
S31520000B80FB68DB00D218BB68D3180A1C1A70BB6836
S31520000B900133BB60BB68072BE9DDFB680133FB60D3
S31520000BA0FB68FE2BE0DD00237B600AE00849FF237B
S31520000BB0DB007A688A18D31800221A707B68013302
S31520000BC07B607B68072BF1DDC046BD4604B080BD47
S31520000BD0D40B0020000000000000000000000000F0
S31520000BE000000000000000000000000000000000DF
S31520000BF000000000000000000000000000000000CF
S31520000C0000000000000000000000000000000000BE
S31520000C1000000000000000000000000000000000AE
S315200013D000000000200000001400000000000000B3
S315200013E020000000000000000000000000000000B7
S315200013F000000000000000000000000000000000C7
S3152000140000000000000000000000000000000000B6
S3152000141000000000000000000000000000000000A6
S315200014200000000000000000000000000000000096
S315200014300000000000000000000000000000000086
S315200014400000000000000000000000000000000076
S315200014500000000000000000000000000000000066
S315200014600000000000000000000000000000000056
S315200014700000000000000000000000000000000046
S315200014800000000000000000000000000000000036
S315200014900000000000000000000000000000000026
S315200014A00000000000000000000000000000000016
S315200014B00000000000000000000000000000000006
S315200014C000000000000000000000000000000000F6
S315200014D000000000000000000000000000000000E6
S315200014E000000000000000000000000000000000D6
S315200014F000000000000000000000000000000000C6
S3152000150000000000000000000000000000000000B5
S3152000151000000000000000000000000000000000A5
S315200015200000000000000000000000000000000095
S315200015300000000000000000000000000000000085
S315200015400000000000000000000000000000000075
S315200015500000000000000000000000000000000065
S315200015600000000000000000000000000000000055
S315200015700000000000000000000000000000000045
S31120001580000000005503002000000000C1
S70520000000DA
