S01900002E2F44656275672F5375706572506564726F2E7331395F
S315200000000248854600F088FEFEE7C04600C0012073
S3152000001080B500AF0C4B00221A600C4B29221A60C7
S315200000200B4B00221A60084B05221A60C046064B6D
S315200000301A6880235B021340F9D0034B00221A6012
S31520000040C046BD4680BDC04610E000E014E000E09A
S3152000005018E000E080B500AF0C4B00221A600C4B74
S3152000006053221A600B4B00221A60084B05221A6095
S31520000070C046064B1A6880235B021340F9D0034B17
S3152000008000221A60C046BD4680BDC04610E000E092
S3152000009014E000E018E000E080B584B000AF78609E
S315200000A00023FB6004E0FFF7D5FFFB680133FB600C
S315200000B07B685B00FA689A42F5DBC046BD4604B011
S315200000C080BD80B582B000AF78607A6813005B018E
S315200000D09B1A9B009B18DB001800FFF7DDFFC0462C
S315200000E0BD4602B080BDC04690B500AF064B074A5C
S315200000F013CA13C313CA13C313CA13C313CA13C30E
S31520000100C046BD4690BDC0465C2400208C240020FD
S3152000011080B500AF00F040F800F0AAF81D4B1B692F
S31520000120002B11DD01F03EF91A4B1B6919006420E2
S3152000013001F09EFB03001800FFF7C3FF154B1B6A57
S315200001405A1C144B1A6215E0124B1B69002B11DA4C
S3152000015001F0EEF80F4B1B695B421900642001F099
S3152000016087FB03001800FFF7ACFF0A4B1B6A5A1ED9
S31520000170084B1A62074B1B69002B03D1054B5B69A1
S31520000180002B03D001F064F800F0E2F8C046BD462B
S3152000019080BDC0465C24002080B500AF00F0FCFB8B
S315200001A0031E0FD000F00EFC031E0BD12E4B1B6935
S315200001B0032B03DC2C4B01229A612DE02A4B0022D3
S315200001C09A6129E000F0E8FB031E10D100F0FAFB4B
S315200001D0031E0CD0244B1B69033304DB224B012264
S315200001E052429A6118E0204B00229A6114E01E4B7D
S315200001F000229A611C4B1B69002B04DD1A4B1B69DC
S315200002005A1E194B1A61184B1B69002B04DA164B20
S315200002101B695A1C144B1A61134BDB68002B08DC34
S31520000220114B00225A61104B0022DA600E4B00223D
S31520000230DA6100F039F8031E04D00B4B012252423A
S31520000240DA610DE000F092FB031E09D0064B0A226C
S315200002505A61054B01225242DA61034B034A5A6224
S31520000260C046BD4680BDC0465C2400206C230020CD
S3152000027080B500AF0B4B1A690A4B9B69D218094B04
S315200002801A61084B5A69074BDB69D218054B5A612C
S31520000290044BDA68034B5B69D218024BDA60C0461E
S315200002A0BD4680BD5C24002080B500AF074BDB68CF
S315200002B0002B03DC054B5B69002B01D0012300E0FA
S315200002C00023DBB21800BD4680BDC0465C2400205A
S315200002D080B500AF184B1B69002B02DD174B00229F
S315200002E01A70154B1B69002B02DA144B01221A7067
S315200002F0114BDB68002B03DD0F4B114A5A6218E0C5
S315200003000D4B1B69002B03D10B4B0E4A5A6210E092
S3152000031000F06EFA031E00DA03339B101A00012345
S31520000320134003D0044B084A5A6202E0024B074AA4
S315200003305A62C046BD4680BD5C240020001B0020BA
S315200003406C2300201C2300200C240020BC2300202A
S3152000035080B588B000AFFFF7BBFF8A4B5B6ABB61F5
S31520000360884BDB68884A134004D5013B0822524259
S31520000370134301337B611E23FB1800221A70EFE022
S31520000380804BDA687F4B1B68D318402B0CDD1E236D
S31520000390FB181A787B4BDB684021CB1A00D5073334
S315200003A0DB109A4200DAD5E0764BDB683F22D21A80
S315200003B0744B1B68D31A00D50733DB10DAB21E2321
S315200003C0FB181B78D318DBB25BB248225242134388
S315200003D05BB2DBB20821180000F02CFE694B9B684B
S315200003E05BB2402213435BB2DBB20821180000F057
S315200003F021FE1F23FB1800221A70A3E01E23FB18E0
S315200004001B78002B20D11E23FB181A785D4B5B68C6
S3152000041053431A001F23FB181B78D318BA69D31825
S31520000420BB60FB1DBA6812781A70FB1D1A787B69AF
S315200004300821CB1A9A40FB1D1A70FB1D1B78082138
S31520000440180000F017FE77E01E203B181B785A1E76
S315200004504C4B5B6853431A001F23FB181B78D31899
S31520000460BA69D3183B611D217B183A6912781A7034
S315200004707B181A787B691A417B181A703B181A78F0
S31520000480404B1B68002B00DA0733DB109A4227DA31
S315200004903C4B5B681A003B699A180F217B1812782F
S315200004A01A707B690822D31AFF221A4113005BB205
S315200004B008003A18127852B213405AB23B181A70F2
S315200004C03B181A787B690821CB1A9A403B181A7078
S315200004D01D22BB18B9183A18097812780A431A70DF
S315200004E01E23FB181A78274B1B68002B00DA0733CC
S315200004F0DB109A4219D1234B9B6840331A001F23E5
S31520000500FB181B78D2181F4BDB68002B00DA073349
S31520000510DB105B4207331D49D2008A18D15C1D22AD
S31520000520BB18BA1812780A431A701D23FB181B78B9
S315200005300821180000F09EFD1F217B181A787B18D1
S3152000054001321A701F23FB181A780E4B5B689A42E9
S3152000055000DA53E71E217B181A787B1801321A70AD
S315200005601E23FB181A78074B1B68002B00DA07336B
S31520000570DB1001339A4200DA02E7C046BD4608B0D6
S3152000058080BDC0465C240020070000801C1B002084
S3152000059080B582B000AF2F4B5B6A3B60BB1D00224B
S315200005A01A7049E02B4BDB683F22D21A294B1B6875
S315200005B0D31A00D50733DB101A00BB1D1B78D318BE
S315200005C0DA179B1853405BB24822524213435BB260
S315200005D0DBB20821180000F02DFD1E4B9B685BB294
S315200005E0402213435BB2DBB20821180000F022FD43
S315200005F0FB1D00221A7014E0BB1D1A78154B5B6890
S3152000060053431A00FB1D1B78D3183A68D3181B785E
S315200006100821180000F02EFDFB1D1A78FB1D013263
S315200006201A70FB1D1A780B4B5B689A42E4DBBB1DE4
S315200006301A78BB1D01321A70BB1D1A78054B1B6830
S31520000640002B00DA0733DB109A42ABDBC046BD46EF
S3152000065002B080BD5C24002080B582B000AF7860F7
S315200006607B68002B01DB7B6800E007231800BD4672
S3152000067002B080BD80B584B000AF0023FB600023AC
S31520000680BB6044E02B4B9B6840331A00BB68D118F3
S31520000690284BDB68002B00DA0733DB105B42DA1DC0
S315200006A0FB1C2548C90041188A5C1A70214BDB685F
S315200006B0224A134004D5013B0822524213430133F8
S315200006C01A0007239B1A01229A40BB1C1A70FB1C96
S315200006D0FA1CB91C127809780A401A70FB1C1A7881
S315200006E0BB681821C91A134BDB681448034004D58C
S315200006F0013B0820404203430133CB189A401300A4
S315200007001A00FB681343FB60BB680133BB60BB6800
S31520000710132BB7DD002000F013F803007B607B6805
S31520000720FA68134001D0012300E000231800BD46DB
S3152000073004B080BD5C2400201C1B00200700008024
S3152000074080B588B000AF7860284B5B6A7B61002358
S31520000750BB611F23FB1800221A7030E0234B1B6855
S31520000760002B00DA0733DB105A1E204B5B685343FD
S315200007701A001F217B181B78D3187A69D2181320E8
S315200007803B1812781A703B181B78FB607B6807228F
S31520000790D31A01229A40FB681340FB607B181B7812
S315200007A01822D21A7B68D318FA689A401300BA69BD
S315200007B01343BB617B181A787B1801321A701F23EA
S315200007C0FB181A78094B5B689A42C7DBBB699B0109
S315200007D09B0906D17B6801331800FFF7B1FF0300A0
S315200007E000E0BB691800BD4608B080BD5C2400202F
S315200007F080B500AF024B1B6A1800BD4680BDC046BF
S315200008005C24002080B500AF024B1B691800BD4652
S3152000081080BDC0465C24002080B584B000AF7860DF
S3152000082039607B683A681A600023FB6006E07B68C3
S31520000830180000F00AF8FB680133FB60FB68092BFF
S31520000840F5DDC046BD4604B080BD80B584B000AF9E
S3152000085078607B6819680B00DB005B1A1A01D21AD4
S315200008609200521A13019B1ADB005B1A5B015B1A7A
S31520000870DA009B18DA019B185B005B1A5A1C7B680E
S315200008801A607B681B68FB600023BB600EE0FB6878
S315200008905A0AFB685B0C5340FA685340FB60FB68BE
S315200008A0064A5343FB60BB680133BB60BB68022B1F
S315200008B0EDDDFB681800BD4604B080BD15EC650172
S315200008C080B582B000AF78607B68022B0CD002D84E
S315200008D0012B05D014E0032B0AD0042B0CD00FE0FB
S315200008E00B4B10225A750EE0094B20225A750AE04E
S315200008F0074B40225A7506E0054B80225A7502E0C6
S31520000900034B00225A75C046BD4602B080BDC04684
S31520000910000C024080B500AF134B5B7CDBB21A00A3
S315200009200823134001D004231BE00F4B5B7CDBB272
S315200009301A000423134001D0032312E00A4B5B7CE8
S31520000940DBB21A000223134001D0022309E0064B32
S315200009505B7CDBB21A000123134001D0012300E0A7
S3152000096000231800BD4680BD000C024080B500AFB4
S315200009700320FFF7A5FFFFF7CDFF0300032B04D1CC
S315200009800020FFF79DFF012303E00020FFF798FFDB
S3152000099000231800BD4680BD80B500AF0420FFF7B8
S315200009A08FFFFFF7B7FF0300042B04D10020FFF7CA
S315200009B087FF012303E00020FFF782FF00231800B2
S315200009C0BD4680BD80B500AF0420FFF779FFFFF755
S315200009D0A1FF0300022B04D10020FFF771FF0123A2
S315200009E003E00020FFF76CFF00231800BD4680BD02
S315200009F080B500AF0120FFF763FFFFF78BFF0300F1
S31520000A00012B04D10020FFF75BFF012303E0002028
S31520000A10FFF756FF00231800BD4680BD90B587B06E
S31520000A2000AF3B00174A13CA13C312681A6000238B
S31520000A303B6101237B611CE07B691800FFF740FFC7
S31520000A40FFF768FF03003B613B69002B0ED00020B7
S31520000A50FFF736FF7B69013BDBB29B00DAB23B69CD
S31520000A60DBB2D318DBB2013BDBB206E07B69013394
S31520000A707B617B69042BDFDDFF231800BD4607B0B1
S31520000A8090BDC046BC24002080B500AF104B114A53
S31520000A901A60114B114A1A600F4B5A680E4B1049B7
S31520000AA00A405A600C4B5A680B4BF02109010A4345
S31520000AB05A60094BDA68084B1204120CDA60064BAE
S31520000AC0DA68054B07490A43DA60C046BD4680BD51
S31520000AD00010024055555555000C024055550055FD
S31520000AE0FF00FFFF0000AAFF80B500AFFFF7CCFF95
S31520000AF000F08EFD00F09FF9084B094A1A60074B5B
S31520000B001A68064B11001800FFF786FE00F0F4FA6B
S31520000B1000F09EFBC046BD4680BDC046181B002087
S31520000B203905000080B500AFFFF762FEFFF760FED3
S31520000B3003001A003F23134001D100F021F8FFF7EC
S31520000B40E7FA00F0C0F8FFF753FF031E03D0FFF7C4
S31520000B50CBFFFFF7C9FAFFF78DFD0300012BE3D189
S31520000B60FFF7C2FFFFF7C0FAC046C046BD4680BDAC
S31520000B7080B500AF002000F069F8C046BD4680BDB4
S31520000B8080B500AFC02000F061F8C046BD4680BDEC
S31520000B9090B58DB000AF786039600823FB18174AEE
S31520000BA013CA13C313CA13C303CA03C30023FB62A6
S31520000BB01CE00023BB6213E07A68BB6AD0183A684F
S31520000BC0FB6AD1180823FA18BB6A5B00D218FB6AA5
S31520000BD0D3181B781A0000F00DFBBB6A0133BB62E9
S31520000BE0BB6A0F2BE8DDFB6A0133FB62FB6A012B34
S31520000BF0DFDDC046BD460DB090BDC046CC240020EA
S31520000C0080B582B000AF78600A00FB1C1A70FB1C0E
S31520000C101B785F2B15D06F2B02D0382B06D011E016
S31520000C207B6806211800FFF7B3FF0BE07B680621DF
S31520000C301800FFF7ADFF7B6804211800FFF7A8FF17
S31520000C4000E0C046C046BD4602B080BD80B598B023
S31520000C5000AF7860174B1800FFF7F7FD030013214C
S31520000C60180000F001FE0B00BB650823FA18124B92
S31520000C701000190050231A0000F002FF0023FB6524
S31520000C8011E0FB6D1A017B68D0180823FA18BB6D9A
S31520000C909B00D218FB6DD3181B781900FFF7B0FF05
S31520000CA0FB6D0133FB65FB6D032BEADDC046BD46BC
S31520000CB018B080BD181B0020EC24002080B500AFA2
S31520000CC0C046BD4680BD80B582B000AF00237B60A4
S31520000CD007E0104A7B68D31800221A707B6801331C
S31520000CE07B607B68132BF4DDFFF782FD03003B60FE
S31520000CF008493B680A22180000F0BEFE00F0B1FC4D
S31520000D00044B01220121180000F0FEFCC046BD461E
S31520000D1002B080BD041B002080B588B000AFFFF76D
S31520000D20E3FE0A23FB61391DFB690A22180000F045
S31520000D30A3FE3B1D01220121180000F0E5FC002343
S31520000D40BB61FFF7EFFEFCE780B584B000AF020081
S31520000D50FB1D1A700C4A0F203B18127D1A703B1887
S31520000D603918FA1D097812780A431A703B183A186E
S31520000D70127804218A431A70034A3B181B7813758C
S31520000D80C046BD4604B080BD0010024080B584B088
S31520000D9000AF0200FB1D1A700F4A0F217B18127D2F
S31520000DA01A70FB1D1B785BB2DB435BB27A18127894
S31520000DB052B213405AB27B181A707B1808007A1860
S31520000DC0127804218A431A70034A3B181B7813753C
S31520000DD0C046BD4604B080BD0010024080B582B03A
S31520000DE000AF0200FB1D1A70FB1D1B78082B0CD0D0
S31520000DF002DC002B05D01AE0102B0DD0182B12D0B8
S31520000E0015E01820FFF7C2FF11E00820FFF79CFF2E
S31520000E101020FFF7BBFF0AE01020FFF795FF082000
S31520000E20FFF7B4FF03E01820FFF78EFFC046C04649
S31520000E30BD4602B080BD80B500AF4020FFF784FFDD
S31520000E400A20FFF729F97820FFF7A0FF1E20FFF7D9
S31520000E5038F92020FFF778FF6420FFF732F91821B0
S31520000E603E2000F0E7F818213E2000F0E3F8182194
S31520000E703F2000F0DFF81821C02000F0DBF8182111
S31520000E80402000F0D7F81821B82000F0D3F8002031
S31520000E90FFF7A4FFC046BD4680BD80B582B000AF37
S31520000EA04020FFF773FF144B144A1A600120FFF706
S31520000EB06DFF0220FFF748FFFFF7CCF84020FFF731
S31520000EC043FFFFF7C7F80C4B5B7CDAB2FB1D7F2193
S31520000ED08A431A704020FFF759FFFFF7BBF8FB1D26
S31520000EE01B78002B00D0E9E7C046034B044A1A6062
S31520000EF0C046BD4602B080BD0010024055550000D8
S31520000F005555555580B584B000AF0200FB1D1A70AB
S31520000F104020FFF73BFF1C4B1C4A1A600320FFF7BB
S31520000F2013FFFB1D1B781800FFF758FFFFF792F8F9
S31520000F304020FFF709FFFFF78DF8134A0F23FB1810
S31520000F40527C1A704020FFF721FF0F4B104A1A607F
S31520000F50FB1D1B780822134004D00820FFF73EFF14
S31520000F60FFF79BFFFB1D1B781022134004D0102097
S31520000F70FFF734FFFFF791FF0F23FB181B781800AC
S31520000F80BD4604B080BDC046001002405555000045
S31520000F905555555580B582B000AF0200FB1D1A701D
S31520000FA0FB1D1B781800FFF7ADFFFB1D1B781800F3
S31520000FB0FFF7A8FF03001800BD4602B080BD80B52C
S31520000FC082B000AF0200FB1D1A70BB1D0A1C1A70EE
S31520000FD0174AFB1D1B785375FFF73CF84020FFF797
S31520000FE0B3FEFFF737F84020FFF7D0FEBB1D1B7876
S31520000FF00822134004D00820FFF7F0FEFFF74DFF2C
S31520001000BB1D1B781022134004D01020FFF7E6FEEC
S31520001010FFF743FF064B00225A754020FFF794FE48
S315200010200020FFF7DBFEC046BD4602B080BDC046AD
S315200010300010024080B582B000AF0200FB1D1A707E
S31520001040BB1D0A1C1A704020FFF7A0FEBB1D1B7893
S315200010501800FFF7C3FE0320FFF798FEBB1D1A7882
S31520001060FB1D1B7811001800FFF7A9FFC046BD46DF
S3152000107002B080BD80B582B000AF0200FB1D1A70A1
S31520001080BB1D0A1C1A704020FFF780FEBB1D1B7873
S315200010901800FFF7A3FE0220FFF778FE0120FFF7D6
S315200010A053FEBB1D1A78FB1D1B7811001800FFF795
S315200010B086FFC046BD4602B080BD80B582B000AF77
S315200010C001237B6011E001233B6008E039687B68DF
S315200010D00022180000F034F83B6801333B603B687F
S315200010E0402BF3DD7B6801337B607B68802BEADD58
S315200010F0C046BD4602B080BD80B582B000AF002399
S315200011007B6013E000233B600AE00C4A7B68DB002F
S31520001110D2183B68D31800221A703B6801333B6013
S315200011203B68072BF1DD7B6801337B607B68FF2BF7
S31520001130E8DDC046BD4602B080BDC0461C1B00206F
S3152000114080B586B000AFF860B9607A60BB68013BB5
S31520001150264A134004D5013B082252421343013349
S315200011601A00012393401A001723FB181A707B6874
S31520001170002B19D0BB683F331A00FB68013B002BBC
S3152000118000DA0733DB101A49D2008A18D05CBA6815
S315200011903F321721791809780143C8B21449D20081
S315200011A08A18011CD1541DE0BB683F331A00FB6826
S315200011B0013B002B00DA0733DB100D49D2008A18D9
S315200011C0D25C52B217217918097849B2C94349B27B
S315200011D00A4051B2BA683F32C8B20549D2008A18CD
S315200011E0011CD154C046BD4606B080BD0700008014
S315200011F01C1B002080B584B000AFF860B960FB1DD1
S315200012001A70064AFB68DB00D218BB68D318FA1D91
S3152000121012781A70C046BD4604B080BD1C1B002043
S3152000122080B584B000AFF860B960FB1D1A70FB680A
S315200012304033064ADB00D218BB68D318FA1D127851
S315200012401A70C046BD4604B080BDC0461C1B002097
S3152000125090B585B000AF0023BB600D23FB1800229C
S315200012601A705AE00D23FB181B78002B01D1082297
S3152000127000E01022FB1D1A700E23FB1800221A70A4
S3152000128040E00E23FB181B78482252421343DAB261
S31520001290FB1D1B7819001000FFF7CCFEFB1D1B78E9
S315200012A019004020FFF7C6FE0F23FB1800221A70F4
S315200012B01DE00D23FB181B7801339A010F243B19DF
S315200012C01B78D2180E23FB181B781849D2008A18CF
S315200012D0D25CFB1D1B7819001000FFF7CBFE3B19D3
S315200012E01A783B1901321A70BB680133BB600F2391
S315200012F0FB181B783F2BDCD90E217B181A787B181C
S3152000130001321A700E23FB181B78072BB9D90D2131
S315200013107B181A787B1801321A700D23FB181B785C
S31520001320012B9FD9C046BD4605B090BD1C1B002091
S3152000133080B584B000AFFF23FB601BE00023BB60B9
S3152000134012E0FB68013B164ADB00D218BB68D318B3
S315200013501978134AFB68DB00D218BB68D3180A1C1D
S315200013601A70BB680133BB60BB68072BE9DDFB68DD
S31520001370013BFB60FB68002BE0DC00237B6007E081
S31520001380074A7B68D31800221A707B6801337B607A
S315200013907B68072BF4DDC046BD4604B080BDC04641
S315200013A01C1B002080B584B000AF0023FB601BE02F
S315200013B00023BB6012E0FB680133174ADB00D2181A
S315200013C0BB68D3181978144AFB68DB00D218BB68AF
S315200013D0D3180A1C1A70BB680133BB60BB68072B85
S315200013E0E9DDFB680133FB60FB68FE2BE0DD0023B3
S315200013F07B600AE00849FF23DB007A688A18D31845
S3152000140000221A707B6801337B607B68072BF1DD35
S31520001410C046BD4604B080BD1C1B002080B584B0EC
S3152000142000AF0200FB1D1A700C4A0F217B181278A0
S315200014301A70FA1D7B1812781B781343DAB208004B
S315200014407B1804210A431A70044A01007B181B7872
S315200014501370C046BD4604B080BDC046141002407D
S3152000146080B584B000AF0200FB1D1A700D4A0F2113
S315200014707B1812781A70FB1D1B785BB2DB435BB2BC
S315200014807A18127852B213405AB27B181A70054A4B
S315200014907B181B7804210B43DBB21370C046BD4674
S315200014A004B080BD1410024080B582B000AF0200A7
S315200014B0FB1D1A704020FFF7B1FF064AFB1D1B7863
S315200014C01370FEF7A5FD4020FFF7CAFFC046BD46B4
S315200014D002B080BD1510024080B582B000AF020078
S315200014E0FB1D1A700320FFF7BBFFFB1D1B7818009E
S315200014F0FFF7DAFFC046BD4602B080BD80B582B098
S3152000150000AF0200FB1D1A700120FFF787FF0220A3
S31520001510FFF7A6FFFB1D1B781800FFF7C5FFC04687
S31520001520BD4602B080BD80B582B000AF4020FFF737
S3152000153075FFFEF76DFDFEF76BFD064AFB1D127863
S315200015401A704020FFF78CFFFB1D1B781800BD4644
S3152000155002B080BD1110024090B583B000AF0A4B97
S315200015600A4A1A600320FFF759FFFC1DFFF7DBFF2D
S3152000157003002370044B064A1A60FB1D1B781800D3
S31520001580BD4603B090BDC046001002405555000030
S315200015905555555590B583B000AF0B4B0B4A1A6085
S315200015A00220FFF73BFF0120FFF75AFFFC1DFFF744
S315200015B0BAFF03002370044B054A1A60FB1D1B78F3
S315200015C01800BD4603B090BD0010024055550000DE
S315200015D05555555580B582B000AF0200FB1D1A70D7
S315200015E0C046FFF7D7FF03001A0080231340802B45
S315200015F0F7D00820FEF750FDFB1D1B781800FFF7DB
S315200016006BFF0220FEF75DFDC046BD4602B080BDE1
S3152000161080B500AF1420FEF73FFD3820FFF744FFCA
S315200016202720FEF739FD1420FEF736FD0E20FFF7A2
S315200016303BFF2720FEF730FD1420FEF72DFD01206D
S31520001640FFF732FF2720FEF727FD1420FEF724FDA3
S315200016500620FFF729FF2720FEF71EFDC046BD46C0
S3152000166080BD80B500AF1420FEF716FD0120FFF7E0
S315200016701BFF2720FEF710FDC046BD4680BD80B566
S3152000168082B000AF0200FB1D1A70C046FFF782FF32
S3152000169003001A0080231340802BF7D00820FEF782
S315200016A0FBFCFB1D1B781800FFF728FF0220FEF726
S315200016B008FDC046BD4602B080BD80B584B000AFEF
S315200016C0786039603B68002B1ADD3B68142B17DCE9
S315200016D07B68002B14DD7B68022B11DC3B68013B09
S315200016E0FB607B68022B02D1FB684033FB60FB6802
S315200016F0DBB2802252421343DBB21800FFF7ECFE26
S31520001700C046BD4604B080BD80B586B000AFF86047
S31520001710B9607A604020FFF739FB4020FFF77EFE54
S315200017207A68BB6811001800FFF7C7FFFB687B616A
S3152000173006E07B695A1C7A611B781800FFF79FFF29
S315200017407B691B78002BF4D14020FFF789FE4020CF
S31520001750FFF7FAFAC046BD4606B080BD0022430810
S315200017608B4274D303098B425FD3030A8B4244D343
S31520001770030B8B4228D3030C8B420DD3FF22090285
S3152000178012BA030C8B4202D31212090265D0030B44
S315200017908B4219D300E0090AC30B8B4201D3CB033A
S315200017A0C01A5241830B8B4201D38B03C01A52417C
S315200017B0430B8B4201D34B03C01A5241030B8B427E
S315200017C001D30B03C01A5241C30A8B4201D3CB0269
S315200017D0C01A5241830A8B4201D38B02C01A52414E
S315200017E0430A8B4201D34B02C01A5241030A8B4251
S315200017F001D30B02C01A5241CDD2C3098B4201D369
S31520001800CB01C01A524183098B4201D38B01C01AE6
S31520001810524143098B4201D34B01C01A524103095D
S315200018208B4201D30B01C01A5241C3088B4201D30C
S31520001830CB00C01A524183088B4201D38B00C01AB9
S31520001840524143088B4201D34B00C01A5241411AE0
S3152000185000D20146524110467047FFE701B50020ED
S3152000186000F0F0F802BDC0460029F7D076E77047B1
S3152000187003460B437FD4002243088B4274D30309CB
S315200018808B425FD3030A8B4244D3030B8B4228D36C
S31520001890030C8B420DD3FF22090212BA030C8B4292
S315200018A002D31212090265D0030B8B4219D300E032
S315200018B0090AC30B8B4201D3CB03C01A5241830BB7
S315200018C08B4201D38B03C01A5241430B8B4201D367
S315200018D04B03C01A5241030B8B4201D30B03C01A90
S315200018E05241C30A8B4201D3CB02C01A5241830A0A
S315200018F08B4201D38B02C01A5241430A8B4201D339
S315200019004B02C01A5241030A8B4201D30B02C01A62
S315200019105241CDD2C3098B4201D3CB01C01A5241C9
S3152000192083098B4201D38B01C01A524143098B4252
S3152000193001D34B01C01A524103098B4201D30B013B
S31520001940C01A5241C3088B4201D3CB00C01A524160
S3152000195083088B4201D38B00C01A524143088B4225
S3152000196001D34B00C01A5241411A00D201465241BE
S31520001970104670475DE0CA0F00D04942031000D3DD
S315200019804042534000229C4603098B422DD3030A32
S315200019908B4212D3FC22890112BA030A8B420CD342
S315200019A0890192118B4208D3890192118B4204D36B
S315200019B089013AD0921100E08909C3098B4201D3EB
S315200019C0CB01C01A524183098B4201D38B01C01A25
S315200019D0524143098B4201D34B01C01A524103099C
S315200019E08B4201D30B01C01A5241C3088B4201D34B
S315200019F0CB00C01A524183088B4201D38B00C01AF8
S31520001A005241D9D243088B4201D34B00C01A5241CE
S31520001A10411A00D20146634652415B10104601D35B
S31520001A204042002B00D54942704763465B1000D3E5
S31520001A30404201B5002000F005F802BD0029F8D08B
S31520001A4016E770477047C046931E10B50C00222B30
S31520001A5004D900231C000B70200010BD0A2A09D1CE
S31520001A60002807DA2D230B7001214042611800F06F
S31520001A7011F8F1E70021F9E710B5FFF7E5FF10BDF2
S31520001A80002310B59A4200D110BDCC5CC45401335A
S31520001A90F8E70000F0B517008DB0252206000D00EE
S31520001AA002A81449FFF7ECFF02AABB1E00240192EC
S31520001AB0222B05D92C70250028000DB0F0BD14006E
S31520001AC030003900FFF7D0FE84460198621CAB181F
S31520001AD0415C5E1E31706646002EF0D11E702B00D2
S31520001AE05A1B9442E8DD1A78295D19702A5501336C
S31520001AF0013CF5E73C25002010B5FFF7CBFF10BDD4
S31520001B0000000000000000000000000000000000AF
S31520001B10000000000000000000000000000000009F
S31520001B20000000000000000000000000000000008F
S31520001B30000000000000000000000000000000007F
S3152000231000000000000000000000000000E0F0F8CF
S31520002320FCFEFEFFFF7F1F1F0F0E1C183060800073
S315200023301F7FFFC71F1F83010B04243404000024C2
S31520002340728207F800000103864C312240808C14EB
S315200023502838281A0201F8070000000609067BA47F
S31520002360A4D53EE5A5BEC60A0601000000E0F0F8A9
S31520002370FCFEFEFFFF7F1F1F0F0E1C183060800023
S315200023801F7FFFC71F1F83010B0424340400002472
S31520002390728207F800000103864C312240808C149B
S315200023A02838281A0201F80700000076497E2B24D7
S315200023B014150E1515262A3A261D000000E0F0F801
S315200023C0FCFEFEFFFF7F1F1F0F0E1C1830608000D3
S315200023D01F7FFFC71F1F83010B0424340400002422
S315200023E0728207F800000183462CB12240808C14AB
S315200023F02838281A0201F807000000070A051B647E
S31520002400A4B5DEA5B5CE060A0601000000C0E0F0A0
S31520002410F8FCFCFEFEFE3E3E1E1C383060C000006E
S315200024203EFFFF8F3F3F0703170848680800004814
S31520002430E4040FF000000307CC38A34480001828DA
S31520002440507050340403F00F000000000073AEA556
S31520002450D60B1DE6A6BCC404040201002000000021
S315200024601400000010000000000000000000000022
S315200024700000000000000000000000000000000036
S315200024801C230020000000000000000020000000A7
S3152000249014000000100000000000000000000000F2
S315200024A00000000000000000000000000000000006
S315200024B01C23002000000000000000000102030A87
S315200024C00405060B0708090C0E000F0DF8070C1C57
S315200024D004300CE0E8871CD8066007200F200B602C
S315200024E039D0CD8F04C004600C30F81F5F5F5F5F6A
S315200024F05F6F6F5F5F385F5F5F6F5F6F6F5F5F6F8D
S315200025005F6F5F5F5F5F385F5F6F385F5F5F6F5FD3
S315200025105F5F5F5F5F5F5F5F6F5F5F5F5F5F5F6F85
S315200025206F5F6F5F5F386F5F5F6F5F5F5F5F6F5F6C
S315200025306F5F5F5F5F5F5F6F5F5F5F5F303132331B
S315200025403435363738396162636465666768696A27
S315200025506B6C6D6E6F707172737475767778797A2D
S309200025600000000051
S70520000000DA
